{
  "_format": "hh3-artifact-1",
  "contractName": "EvidenceToken",
  "sourceName": "contracts/EvidenceToken.sol",
  "abi": [
    {
      "inputs": [],
      "stateMutability": "nonpayable",
      "type": "constructor"
    },
    {
      "inputs": [
        {
          "internalType": "address",
          "name": "spender",
          "type": "address"
        },
        {
          "internalType": "uint256",
          "name": "allowance",
          "type": "uint256"
        },
        {
          "internalType": "uint256",
          "name": "needed",
          "type": "uint256"
        }
      ],
      "name": "ERC20InsufficientAllowance",
      "type": "error"
    },
    {
      "inputs": [
        {
          "internalType": "address",
          "name": "sender",
          "type": "address"
        },
        {
          "internalType": "uint256",
          "name": "balance",
          "type": "uint256"
        },
        {
          "internalType": "uint256",
          "name": "needed",
          "type": "uint256"
        }
      ],
      "name": "ERC20InsufficientBalance",
      "type": "error"
    },
    {
      "inputs": [
        {
          "internalType": "address",
          "name": "approver",
          "type": "address"
        }
      ],
      "name": "ERC20InvalidApprover",
      "type": "error"
    },
    {
      "inputs": [
        {
          "internalType": "address",
          "name": "receiver",
          "type": "address"
        }
      ],
      "name": "ERC20InvalidReceiver",
      "type": "error"
    },
    {
      "inputs": [
        {
          "internalType": "address",
          "name": "sender",
          "type": "address"
        }
      ],
      "name": "ERC20InvalidSender",
      "type": "error"
    },
    {
      "inputs": [
        {
          "internalType": "address",
          "name": "spender",
          "type": "address"
        }
      ],
      "name": "ERC20InvalidSpender",
      "type": "error"
    },
    {
      "inputs": [
        {
          "internalType": "address",
          "name": "owner",
          "type": "address"
        }
      ],
      "name": "OwnableInvalidOwner",
      "type": "error"
    },
    {
      "inputs": [
        {
          "internalType": "address",
          "name": "account",
          "type": "address"
        }
      ],
      "name": "OwnableUnauthorizedAccount",
      "type": "error"
    },
    {
      "anonymous": false,
      "inputs": [
        {
          "indexed": true,
          "internalType": "address",
          "name": "owner",
          "type": "address"
        },
        {
          "indexed": true,
          "internalType": "address",
          "name": "spender",
          "type": "address"
        },
        {
          "indexed": false,
          "internalType": "uint256",
          "name": "value",
          "type": "uint256"
        }
      ],
      "name": "Approval",
      "type": "event"
    },
    {
      "anonymous": false,
      "inputs": [
        {
          "indexed": true,
          "internalType": "address",
          "name": "previousOwner",
          "type": "address"
        },
        {
          "indexed": true,
          "internalType": "address",
          "name": "newOwner",
          "type": "address"
        }
      ],
      "name": "OwnershipTransferred",
      "type": "event"
    },
    {
      "anonymous": false,
      "inputs": [
        {
          "indexed": true,
          "internalType": "address",
          "name": "from",
          "type": "address"
        },
        {
          "indexed": true,
          "internalType": "address",
          "name": "to",
          "type": "address"
        },
        {
          "indexed": false,
          "internalType": "uint256",
          "name": "value",
          "type": "uint256"
        }
      ],
      "name": "Transfer",
      "type": "event"
    },
    {
      "inputs": [],
      "name": "MAX_SUPPLY",
      "outputs": [
        {
          "internalType": "uint256",
          "name": "",
          "type": "uint256"
        }
      ],
      "stateMutability": "view",
      "type": "function"
    },
    {
      "inputs": [
        {
          "internalType": "address",
          "name": "owner",
          "type": "address"
        },
        {
          "internalType": "address",
          "name": "spender",
          "type": "address"
        }
      ],
      "name": "allowance",
      "outputs": [
        {
          "internalType": "uint256",
          "name": "",
          "type": "uint256"
        }
      ],
      "stateMutability": "view",
      "type": "function"
    },
    {
      "inputs": [
        {
          "internalType": "address",
          "name": "spender",
          "type": "address"
        },
        {
          "internalType": "uint256",
          "name": "value",
          "type": "uint256"
        }
      ],
      "name": "approve",
      "outputs": [
        {
          "internalType": "bool",
          "name": "",
          "type": "bool"
        }
      ],
      "stateMutability": "nonpayable",
      "type": "function"
    },
    {
      "inputs": [
        {
          "internalType": "address",
          "name": "account",
          "type": "address"
        }
      ],
      "name": "balanceOf",
      "outputs": [
        {
          "internalType": "uint256",
          "name": "",
          "type": "uint256"
        }
      ],
      "stateMutability": "view",
      "type": "function"
    },
    {
      "inputs": [],
      "name": "decimals",
      "outputs": [
        {
          "internalType": "uint8",
          "name": "",
          "type": "uint8"
        }
      ],
      "stateMutability": "view",
      "type": "function"
    },
    {
      "inputs": [
        {
          "internalType": "address",
          "name": "to",
          "type": "address"
        },
        {
          "internalType": "uint256",
          "name": "amount",
          "type": "uint256"
        }
      ],
      "name": "mint",
      "outputs": [],
      "stateMutability": "nonpayable",
      "type": "function"
    },
    {
      "inputs": [],
      "name": "name",
      "outputs": [
        {
          "internalType": "string",
          "name": "",
          "type": "string"
        }
      ],
      "stateMutability": "view",
      "type": "function"
    },
    {
      "inputs": [],
      "name": "owner",
      "outputs": [
        {
          "internalType": "address",
          "name": "",
          "type": "address"
        }
      ],
      "stateMutability": "view",
      "type": "function"
    },
    {
      "inputs": [],
      "name": "renounceOwnership",
      "outputs": [],
      "stateMutability": "nonpayable",
      "type": "function"
    },
    {
      "inputs": [],
      "name": "symbol",
      "outputs": [
        {
          "internalType": "string",
          "name": "",
          "type": "string"
        }
      ],
      "stateMutability": "view",
      "type": "function"
    },
    {
      "inputs": [],
      "name": "totalSupply",
      "outputs": [
        {
          "internalType": "uint256",
          "name": "",
          "type": "uint256"
        }
      ],
      "stateMutability": "view",
      "type": "function"
    },
    {
      "inputs": [
        {
          "internalType": "address",
          "name": "to",
          "type": "address"
        },
        {
          "internalType": "uint256",
          "name": "value",
          "type": "uint256"
        }
      ],
      "name": "transfer",
      "outputs": [
        {
          "internalType": "bool",
          "name": "",
          "type": "bool"
        }
      ],
      "stateMutability": "nonpayable",
      "type": "function"
    },
    {
      "inputs": [
        {
          "internalType": "address",
          "name": "from",
          "type": "address"
        },
        {
          "internalType": "address",
          "name": "to",
          "type": "address"
        },
        {
          "internalType": "uint256",
          "name": "value",
          "type": "uint256"
        }
      ],
      "name": "transferFrom",
      "outputs": [
        {
          "internalType": "bool",
          "name": "",
          "type": "bool"
        }
      ],
      "stateMutability": "nonpayable",
      "type": "function"
    },
    {
      "inputs": [
        {
          "internalType": "address",
          "name": "newOwner",
          "type": "address"
        }
      ],
      "name": "transferOwnership",
      "outputs": [],
      "stateMutability": "nonpayable",
      "type": "function"
    }
  ],
  "bytecode": "0x60a060405261001261018960201b60201c565b600a61001e9190610663565b620f424061002c91906106ad565b60809081525034801561003d575f5ffd5b50336040518060400160405280600d81526020017f45766964656e6365546f6b656e000000000000000000000000000000000000008152506040518060400160405280600381526020017f455654000000000000000000000000000000000000000000000000000000000081525081600390816100ba9190610922565b5080600490816100ca9190610922565b5050505f73ffffffffffffffffffffffffffffffffffffffff168173ffffffffffffffffffffffffffffffffffffffff160361013d575f6040517f1e4fbdf70000000000000000000000000000000000000000000000000000000081526004016101349190610a30565b60405180910390fd5b61014c8161019160201b60201c565b506101843361015f61018960201b60201c565b600a61016b9190610663565b620f424061017991906106ad565b61025460201b60201c565b610ad9565b5f6012905090565b5f60055f9054906101000a900473ffffffffffffffffffffffffffffffffffffffff1690508160055f6101000a81548173ffffffffffffffffffffffffffffffffffffffff021916908373ffffffffffffffffffffffffffffffffffffffff1602179055508173ffffffffffffffffffffffffffffffffffffffff168173ffffffffffffffffffffffffffffffffffffffff167f8be0079c531659141344cd1fd0a4f28419497f9722a3daafe3b4186f6b6457e060405160405180910390a35050565b5f73ffffffffffffffffffffffffffffffffffffffff168273ffffffffffffffffffffffffffffffffffffffff16036102c4575f6040517fec442f050000000000000000000000000000000000000000000000000000000081526004016102bb9190610a30565b60405180910390fd5b6102d55f83836102d960201b60201c565b5050565b5f73ffffffffffffffffffffffffffffffffffffffff168373ffffffffffffffffffffffffffffffffffffffff1603610329578060025f82825461031d9190610a49565b925050819055506103f7565b5f5f5f8573ffffffffffffffffffffffffffffffffffffffff1673ffffffffffffffffffffffffffffffffffffffff1681526020019081526020015f20549050818110156103b2578381836040517fe450d38c0000000000000000000000000000000000000000000000000000000081526004016103a993929190610a8b565b60405180910390fd5b8181035f5f8673ffffffffffffffffffffffffffffffffffffffff1673ffffffffffffffffffffffffffffffffffffffff1681526020019081526020015f2081905550505b5f73ffffffffffffffffffffffffffffffffffffffff168273ffffffffffffffffffffffffffffffffffffffff160361043e578060025f8282540392505081905550610488565b805f5f8473ffffffffffffffffffffffffffffffffffffffff1673ffffffffffffffffffffffffffffffffffffffff1681526020019081526020015f205f82825401925050819055505b8173ffffffffffffffffffffffffffffffffffffffff168373ffffffffffffffffffffffffffffffffffffffff167fddf252ad1be2c89b69c2b068fc378daa952ba7f163c4a11628f55a4df523b3ef836040516104e59190610ac0565b60405180910390a3505050565b7f4e487b71000000000000000000000000000000000000000000000000000000005f52601160045260245ffd5b5f8160011c9050919050565b5f5f8291508390505b6001851115610574578086048111156105505761054f6104f2565b5b600185161561055f5780820291505b808102905061056d8561051f565b9450610534565b94509492505050565b5f8261058c5760019050610647565b81610599575f9050610647565b81600181146105af57600281146105b9576105e8565b6001915050610647565b60ff8411156105cb576105ca6104f2565b5b8360020a9150848211156105e2576105e16104f2565b5b50610647565b5060208310610133831016604e8410600b841016171561061d5782820a905083811115610618576106176104f2565b5b610647565b61062a848484600161052b565b92509050818404811115610641576106406104f2565b5b81810290505b9392505050565b5f819050919050565b5f60ff82169050919050565b5f61066d8261064e565b915061067883610657565b92506106a57fffffffffffffffffffffffffffffffffffffffffffffffffffffffffffffffff848461057d565b905092915050565b5f6106b78261064e565b91506106c28361064e565b92508282026106d08161064e565b915082820484148315176106e7576106e66104f2565b5b5092915050565b5f81519050919050565b7f4e487b71000000000000000000000000000000000000000000000000000000005f52604160045260245ffd5b7f4e487b71000000000000000000000000000000000000000000000000000000005f52602260045260245ffd5b5f600282049050600182168061076957607f821691505b60208210810361077c5761077b610725565b5b50919050565b5f819050815f5260205f209050919050565b5f6020601f8301049050919050565b5f82821b905092915050565b5f600883026107de7fffffffffffffffffffffffffffffffffffffffffffffffffffffffffffffffff826107a3565b6107e886836107a3565b95508019841693508086168417925050509392505050565b5f819050919050565b5f61082361081e6108198461064e565b610800565b61064e565b9050919050565b5f819050919050565b61083c83610809565b6108506108488261082a565b8484546107af565b825550505050565b5f5f905090565b610867610858565b610872818484610833565b505050565b5b818110156108955761088a5f8261085f565b600181019050610878565b5050565b601f8211156108da576108ab81610782565b6108b484610794565b810160208510156108c3578190505b6108d76108cf85610794565b830182610877565b50505b505050565b5f82821c905092915050565b5f6108fa5f19846008026108df565b1980831691505092915050565b5f61091283836108eb565b9150826002028217905092915050565b61092b826106ee565b67ffffffffffffffff811115610944576109436106f8565b5b61094e8254610752565b610959828285610899565b5f60209050601f83116001811461098a575f8415610978578287015190505b6109828582610907565b8655506109e9565b601f19841661099886610782565b5f5b828110156109bf5784890151825560018201915060208501945060208101905061099a565b868310156109dc57848901516109d8601f8916826108eb565b8355505b6001600288020188555050505b505050505050565b5f73ffffffffffffffffffffffffffffffffffffffff82169050919050565b5f610a1a826109f1565b9050919050565b610a2a81610a10565b82525050565b5f602082019050610a435f830184610a21565b92915050565b5f610a538261064e565b9150610a5e8361064e565b9250828201905080821115610a7657610a756104f2565b5b92915050565b610a858161064e565b82525050565b5f606082019050610a9e5f830186610a21565b610aab6020830185610a7c565b610ab86040830184610a7c565b949350505050565b5f602082019050610ad35f830184610a7c565b92915050565b608051611256610af85f395f81816103c501526103f101526112565ff3fe608060405234801561000f575f5ffd5b50600436106100e8575f3560e01c806370a082311161008a57806395d89b411161006457806395d89b4114610238578063a9059cbb14610256578063dd62ed3e14610286578063f2fde38b146102b6576100e8565b806370a08231146101e0578063715018a6146102105780638da5cb5b1461021a576100e8565b806323b872dd116100c657806323b872dd14610158578063313ce5671461018857806332cb6b0c146101a657806340c10f19146101c4576100e8565b806306fdde03146100ec578063095ea7b31461010a57806318160ddd1461013a575b5f5ffd5b6100f46102d2565b6040516101019190610e67565b60405180910390f35b610124600480360381019061011f9190610f18565b610362565b6040516101319190610f70565b60405180910390f35b610142610384565b60405161014f9190610f98565b60405180910390f35b610172600480360381019061016d9190610fb1565b61038d565b60405161017f9190610f70565b60405180910390f35b6101906103bb565b60405161019d919061101c565b60405180910390f35b6101ae6103c3565b6040516101bb9190610f98565b60405180910390f35b6101de60048036038101906101d99190610f18565b6103e7565b005b6101fa60048036038101906101f59190611035565b610472565b6040516102079190610f98565b60405180910390f35b6102186104b7565b005b6102226104ca565b60405161022f919061106f565b60405180910390f35b6102406104f2565b60405161024d9190610e67565b60405180910390f35b610270600480360381019061026b9190610f18565b610582565b60405161027d9190610f70565b60405180910390f35b6102a0600480360381019061029b9190611088565b6105a4565b6040516102ad9190610f98565b60405180910390f35b6102d060048036038101906102cb9190611035565b610626565b005b6060600380546102e1906110f3565b80601f016020809104026020016040519081016040528092919081815260200182805461030d906110f3565b80156103585780601f1061032f57610100808354040283529160200191610358565b820191905f5260205f20905b81548152906001019060200180831161033b57829003601f168201915b5050505050905090565b5f5f61036c6106aa565b90506103798185856106b1565b600191505092915050565b5f600254905090565b5f5f6103976106aa565b90506103a48582856106c3565b6103af858585610756565b60019150509392505050565b5f6012905090565b7f000000000000000000000000000000000000000000000000000000000000000081565b6103ef610846565b7f000000000000000000000000000000000000000000000000000000000000000081610419610384565b6104239190611150565b1115610464576040517f08c379a000000000000000000000000000000000000000000000000000000000815260040161045b906111cd565b60405180910390fd5b61046e82826108cd565b5050565b5f5f5f8373ffffffffffffffffffffffffffffffffffffffff1673ffffffffffffffffffffffffffffffffffffffff1681526020019081526020015f20549050919050565b6104bf610846565b6104c85f61094c565b565b5f60055f9054906101000a900473ffffffffffffffffffffffffffffffffffffffff16905090565b606060048054610501906110f3565b80601f016020809104026020016040519081016040528092919081815260200182805461052d906110f3565b80156105785780601f1061054f57610100808354040283529160200191610578565b820191905f5260205f20905b81548152906001019060200180831161055b57829003601f168201915b5050505050905090565b5f5f61058c6106aa565b9050610599818585610756565b600191505092915050565b5f60015f8473ffffffffffffffffffffffffffffffffffffffff1673ffffffffffffffffffffffffffffffffffffffff1681526020019081526020015f205f8373ffffffffffffffffffffffffffffffffffffffff1673ffffffffffffffffffffffffffffffffffffffff1681526020019081526020015f2054905092915050565b61062e610846565b5f73ffffffffffffffffffffffffffffffffffffffff168173ffffffffffffffffffffffffffffffffffffffff160361069e575f6040517f1e4fbdf7000000000000000000000000000000000000000000000000000000008152600401610695919061106f565b60405180910390fd5b6106a78161094c565b50565b5f33905090565b6106be8383836001610a0f565b505050565b5f6106ce84846105a4565b90507fffffffffffffffffffffffffffffffffffffffffffffffffffffffffffffffff8110156107505781811015610741578281836040517ffb8f41b2000000000000000000000000000000000000000000000000000000008152600401610738939291906111eb565b60405180910390fd5b61074f84848484035f610a0f565b5b50505050565b5f73ffffffffffffffffffffffffffffffffffffffff168373ffffffffffffffffffffffffffffffffffffffff16036107c6575f6040517f96c6fd1e0000000000000000000000000000000000000000000000000000000081526004016107bd919061106f565b60405180910390fd5b5f73ffffffffffffffffffffffffffffffffffffffff168273ffffffffffffffffffffffffffffffffffffffff1603610836575f6040517fec442f0500000000000000000000000000000000000000000000000000000000815260040161082d919061106f565b60405180910390fd5b610841838383610bde565b505050565b61084e6106aa565b73ffffffffffffffffffffffffffffffffffffffff1661086c6104ca565b73ffffffffffffffffffffffffffffffffffffffff16146108cb5761088f6106aa565b6040517f118cdaa70000000000000000000000000000000000000000000000000000000081526004016108c2919061106f565b60405180910390fd5b565b5f73ffffffffffffffffffffffffffffffffffffffff168273ffffffffffffffffffffffffffffffffffffffff160361093d575f6040517fec442f05000000000000000000000000000000000000000000000000000000008152600401610934919061106f565b60405180910390fd5b6109485f8383610bde565b5050565b5f60055f9054906101000a900473ffffffffffffffffffffffffffffffffffffffff1690508160055f6101000a81548173ffffffffffffffffffffffffffffffffffffffff021916908373ffffffffffffffffffffffffffffffffffffffff1602179055508173ffffffffffffffffffffffffffffffffffffffff168173ffffffffffffffffffffffffffffffffffffffff167f8be0079c531659141344cd1fd0a4f28419497f9722a3daafe3b4186f6b6457e060405160405180910390a35050565b5f73ffffffffffffffffffffffffffffffffffffffff168473ffffffffffffffffffffffffffffffffffffffff1603610a7f575f6040517fe602df05000000000000000000000000000000000000000000000000000000008152600401610a76919061106f565b60405180910390fd5b5f73ffffffffffffffffffffffffffffffffffffffff168373ffffffffffffffffffffffffffffffffffffffff1603610aef575f6040517f94280d62000000000000000000000000000000000000000000000000000000008152600401610ae6919061106f565b60405180910390fd5b8160015f8673ffffffffffffffffffffffffffffffffffffffff1673ffffffffffffffffffffffffffffffffffffffff1681526020019081526020015f205f8573ffffffffffffffffffffffffffffffffffffffff1673ffffffffffffffffffffffffffffffffffffffff1681526020019081526020015f20819055508015610bd8578273ffffffffffffffffffffffffffffffffffffffff168473ffffffffffffffffffffffffffffffffffffffff167f8c5be1e5ebec7d5bd14f71427d1e84f3dd0314c0f7b2291e5b200ac8c7c3b92584604051610bcf9190610f98565b60405180910390a35b50505050565b5f73ffffffffffffffffffffffffffffffffffffffff168373ffffffffffffffffffffffffffffffffffffffff1603610c2e578060025f828254610c229190611150565b92505081905550610cfc565b5f5f5f8573ffffffffffffffffffffffffffffffffffffffff1673ffffffffffffffffffffffffffffffffffffffff1681526020019081526020015f2054905081811015610cb7578381836040517fe450d38c000000000000000000000000000000000000000000000000000000008152600401610cae939291906111eb565b60405180910390fd5b8181035f5f8673ffffffffffffffffffffffffffffffffffffffff1673ffffffffffffffffffffffffffffffffffffffff1681526020019081526020015f2081905550505b5f73ffffffffffffffffffffffffffffffffffffffff168273ffffffffffffffffffffffffffffffffffffffff1603610d43578060025f8282540392505081905550610d8d565b805f5f8473ffffffffffffffffffffffffffffffffffffffff1673ffffffffffffffffffffffffffffffffffffffff1681526020019081526020015f205f82825401925050819055505b8173ffffffffffffffffffffffffffffffffffffffff168373ffffffffffffffffffffffffffffffffffffffff167fddf252ad1be2c89b69c2b068fc378daa952ba7f163c4a11628f55a4df523b3ef83604051610dea9190610f98565b60405180910390a3505050565b5f81519050919050565b5f82825260208201905092915050565b8281835e5f83830152505050565b5f601f19601f8301169050919050565b5f610e3982610df7565b610e438185610e01565b9350610e53818560208601610e11565b610e5c81610e1f565b840191505092915050565b5f6020820190508181035f830152610e7f8184610e2f565b905092915050565b5f5ffd5b5f73ffffffffffffffffffffffffffffffffffffffff82169050919050565b5f610eb482610e8b565b9050919050565b610ec481610eaa565b8114610ece575f5ffd5b50565b5f81359050610edf81610ebb565b92915050565b5f819050919050565b610ef781610ee5565b8114610f01575f5ffd5b50565b5f81359050610f1281610eee565b92915050565b5f5f60408385031215610f2e57610f2d610e87565b5b5f610f3b85828601610ed1565b9250506020610f4c85828601610f04565b9150509250929050565b5f8115159050919050565b610f6a81610f56565b82525050565b5f602082019050610f835f830184610f61565b92915050565b610f9281610ee5565b82525050565b5f602082019050610fab5f830184610f89565b92915050565b5f5f5f60608486031215610fc857610fc7610e87565b5b5f610fd586828701610ed1565b9350506020610fe686828701610ed1565b9250506040610ff786828701610f04565b9150509250925092565b5f60ff82169050919050565b61101681611001565b82525050565b5f60208201905061102f5f83018461100d565b92915050565b5f6020828403121561104a57611049610e87565b5b5f61105784828501610ed1565b91505092915050565b61106981610eaa565b82525050565b5f6020820190506110825f830184611060565b92915050565b5f5f6040838503121561109e5761109d610e87565b5b5f6110ab85828601610ed1565b92505060206110bc85828601610ed1565b9150509250929050565b7f4e487b71000000000000000000000000000000000000000000000000000000005f52602260045260245ffd5b5f600282049050600182168061110a57607f821691505b60208210810361111d5761111c6110c6565b5b50919050565b7f4e487b71000000000000000000000000000000000000000000000000000000005f52601160045260245ffd5b5f61115a82610ee5565b915061116583610ee5565b925082820190508082111561117d5761117c611123565b5b92915050565b7f45786365656473206d617820737570706c7900000000000000000000000000005f82015250565b5f6111b7601283610e01565b91506111c282611183565b602082019050919050565b5f6020820190508181035f8301526111e4816111ab565b9050919050565b5f6060820190506111fe5f830186611060565b61120b6020830185610f89565b6112186040830184610f89565b94935050505056fea2646970667358221220b43f8d5584f60b3f67bada3a91b2d4e08590f80bfb1838af0928b2bfec8aebbe64736f6c634300081c0033",
  "linkReferences": {},
  "deployedLinkReferences": {},
  "immutableReferences": {
    "9598": [
      {
        "length": 32,
        "start": 965
      },
      {
        "length": 32,
        "start": 1009
      }
    ]
  },
  "inputSourceName": "project/contracts/EvidenceToken.sol",
  "buildInfoId": "solc-0_8_28-3c4fae395984bbee38933405123a5a29a4fe46db"
}