{
  "_format": "hh3-artifact-1",
  "contractName": "EvidenceNFT",
  "sourceName": "contracts/EvidenceToken.sol",
  "abi": [
    {
      "inputs": [],
      "stateMutability": "nonpayable",
      "type": "constructor"
    },
    {
      "inputs": [],
      "name": "AccessControlBadConfirmation",
      "type": "error"
    },
    {
      "inputs": [
        {
          "internalType": "address",
          "name": "account",
          "type": "address"
        },
        {
          "internalType": "bytes32",
          "name": "neededRole",
          "type": "bytes32"
        }
      ],
      "name": "AccessControlUnauthorizedAccount",
      "type": "error"
    },
    {
      "inputs": [
        {
          "internalType": "address",
          "name": "sender",
          "type": "address"
        },
        {
          "internalType": "uint256",
          "name": "tokenId",
          "type": "uint256"
        },
        {
          "internalType": "address",
          "name": "owner",
          "type": "address"
        }
      ],
      "name": "ERC721IncorrectOwner",
      "type": "error"
    },
    {
      "inputs": [
        {
          "internalType": "address",
          "name": "operator",
          "type": "address"
        },
        {
          "internalType": "uint256",
          "name": "tokenId",
          "type": "uint256"
        }
      ],
      "name": "ERC721InsufficientApproval",
      "type": "error"
    },
    {
      "inputs": [
        {
          "internalType": "address",
          "name": "approver",
          "type": "address"
        }
      ],
      "name": "ERC721InvalidApprover",
      "type": "error"
    },
    {
      "inputs": [
        {
          "internalType": "address",
          "name": "operator",
          "type": "address"
        }
      ],
      "name": "ERC721InvalidOperator",
      "type": "error"
    },
    {
      "inputs": [
        {
          "internalType": "address",
          "name": "owner",
          "type": "address"
        }
      ],
      "name": "ERC721InvalidOwner",
      "type": "error"
    },
    {
      "inputs": [
        {
          "internalType": "address",
          "name": "receiver",
          "type": "address"
        }
      ],
      "name": "ERC721InvalidReceiver",
      "type": "error"
    },
    {
      "inputs": [
        {
          "internalType": "address",
          "name": "sender",
          "type": "address"
        }
      ],
      "name": "ERC721InvalidSender",
      "type": "error"
    },
    {
      "inputs": [
        {
          "internalType": "uint256",
          "name": "tokenId",
          "type": "uint256"
        }
      ],
      "name": "ERC721NonexistentToken",
      "type": "error"
    },
    {
      "anonymous": false,
      "inputs": [
        {
          "indexed": true,
          "internalType": "address",
          "name": "owner",
          "type": "address"
        },
        {
          "indexed": true,
          "internalType": "address",
          "name": "approved",
          "type": "address"
        },
        {
          "indexed": true,
          "internalType": "uint256",
          "name": "tokenId",
          "type": "uint256"
        }
      ],
      "name": "Approval",
      "type": "event"
    },
    {
      "anonymous": false,
      "inputs": [
        {
          "indexed": true,
          "internalType": "address",
          "name": "owner",
          "type": "address"
        },
        {
          "indexed": true,
          "internalType": "address",
          "name": "operator",
          "type": "address"
        },
        {
          "indexed": false,
          "internalType": "bool",
          "name": "approved",
          "type": "bool"
        }
      ],
      "name": "ApprovalForAll",
      "type": "event"
    },
    {
      "anonymous": false,
      "inputs": [
        {
          "indexed": true,
          "internalType": "bytes32",
          "name": "role",
          "type": "bytes32"
        },
        {
          "indexed": true,
          "internalType": "bytes32",
          "name": "previousAdminRole",
          "type": "bytes32"
        },
        {
          "indexed": true,
          "internalType": "bytes32",
          "name": "newAdminRole",
          "type": "bytes32"
        }
      ],
      "name": "RoleAdminChanged",
      "type": "event"
    },
    {
      "anonymous": false,
      "inputs": [
        {
          "indexed": true,
          "internalType": "bytes32",
          "name": "role",
          "type": "bytes32"
        },
        {
          "indexed": true,
          "internalType": "address",
          "name": "account",
          "type": "address"
        },
        {
          "indexed": true,
          "internalType": "address",
          "name": "sender",
          "type": "address"
        }
      ],
      "name": "RoleGranted",
      "type": "event"
    },
    {
      "anonymous": false,
      "inputs": [
        {
          "indexed": true,
          "internalType": "bytes32",
          "name": "role",
          "type": "bytes32"
        },
        {
          "indexed": true,
          "internalType": "address",
          "name": "account",
          "type": "address"
        },
        {
          "indexed": true,
          "internalType": "address",
          "name": "sender",
          "type": "address"
        }
      ],
      "name": "RoleRevoked",
      "type": "event"
    },
    {
      "anonymous": false,
      "inputs": [
        {
          "indexed": true,
          "internalType": "address",
          "name": "from",
          "type": "address"
        },
        {
          "indexed": true,
          "internalType": "address",
          "name": "to",
          "type": "address"
        },
        {
          "indexed": true,
          "internalType": "uint256",
          "name": "tokenId",
          "type": "uint256"
        }
      ],
      "name": "Transfer",
      "type": "event"
    },
    {
      "inputs": [],
      "name": "DEFAULT_ADMIN_ROLE",
      "outputs": [
        {
          "internalType": "bytes32",
          "name": "",
          "type": "bytes32"
        }
      ],
      "stateMutability": "view",
      "type": "function"
    },
    {
      "inputs": [],
      "name": "SUBMITTER_ROLE",
      "outputs": [
        {
          "internalType": "bytes32",
          "name": "",
          "type": "bytes32"
        }
      ],
      "stateMutability": "view",
      "type": "function"
    },
    {
      "inputs": [
        {
          "internalType": "address",
          "name": "to",
          "type": "address"
        },
        {
          "internalType": "uint256",
          "name": "tokenId",
          "type": "uint256"
        }
      ],
      "name": "approve",
      "outputs": [],
      "stateMutability": "nonpayable",
      "type": "function"
    },
    {
      "inputs": [
        {
          "internalType": "address",
          "name": "owner",
          "type": "address"
        }
      ],
      "name": "balanceOf",
      "outputs": [
        {
          "internalType": "uint256",
          "name": "",
          "type": "uint256"
        }
      ],
      "stateMutability": "view",
      "type": "function"
    },
    {
      "inputs": [
        {
          "internalType": "uint256",
          "name": "",
          "type": "uint256"
        }
      ],
      "name": "evidenceData",
      "outputs": [
        {
          "internalType": "string",
          "name": "caseId",
          "type": "string"
        },
        {
          "internalType": "string",
          "name": "evidenceType",
          "type": "string"
        },
        {
          "internalType": "bytes32",
          "name": "evidenceHash",
          "type": "bytes32"
        },
        {
          "internalType": "string",
          "name": "evidenceName",
          "type": "string"
        },
        {
          "internalType": "string",
          "name": "evidencelocation",
          "type": "string"
        },
        {
          "internalType": "address",
          "name": "submitter",
          "type": "address"
        }
      ],
      "stateMutability": "view",
      "type": "function"
    },
    {
      "inputs": [
        {
          "internalType": "uint256",
          "name": "tokenId",
          "type": "uint256"
        }
      ],
      "name": "getApproved",
      "outputs": [
        {
          "internalType": "address",
          "name": "",
          "type": "address"
        }
      ],
      "stateMutability": "view",
      "type": "function"
    },
    {
      "inputs": [
        {
          "internalType": "bytes32",
          "name": "role",
          "type": "bytes32"
        }
      ],
      "name": "getRoleAdmin",
      "outputs": [
        {
          "internalType": "bytes32",
          "name": "",
          "type": "bytes32"
        }
      ],
      "stateMutability": "view",
      "type": "function"
    },
    {
      "inputs": [
        {
          "internalType": "bytes32",
          "name": "role",
          "type": "bytes32"
        },
        {
          "internalType": "address",
          "name": "account",
          "type": "address"
        }
      ],
      "name": "grantRole",
      "outputs": [],
      "stateMutability": "nonpayable",
      "type": "function"
    },
    {
      "inputs": [
        {
          "internalType": "bytes32",
          "name": "role",
          "type": "bytes32"
        },
        {
          "internalType": "address",
          "name": "account",
          "type": "address"
        }
      ],
      "name": "hasRole",
      "outputs": [
        {
          "internalType": "bool",
          "name": "",
          "type": "bool"
        }
      ],
      "stateMutability": "view",
      "type": "function"
    },
    {
      "inputs": [
        {
          "internalType": "address",
          "name": "owner",
          "type": "address"
        },
        {
          "internalType": "address",
          "name": "operator",
          "type": "address"
        }
      ],
      "name": "isApprovedForAll",
      "outputs": [
        {
          "internalType": "bool",
          "name": "",
          "type": "bool"
        }
      ],
      "stateMutability": "view",
      "type": "function"
    },
    {
      "inputs": [
        {
          "internalType": "address",
          "name": "to",
          "type": "address"
        },
        {
          "internalType": "string",
          "name": "caseId",
          "type": "string"
        },
        {
          "internalType": "string",
          "name": "evidenceType",
          "type": "string"
        },
        {
          "internalType": "bytes32",
          "name": "evidenceHash",
          "type": "bytes32"
        },
        {
          "internalType": "string",
          "name": "evidenceName",
          "type": "string"
        },
        {
          "internalType": "string",
          "name": "evidencelocation",
          "type": "string"
        }
      ],
      "name": "mintEvidenceNFT",
      "outputs": [
        {
          "internalType": "uint256",
          "name": "",
          "type": "uint256"
        }
      ],
      "stateMutability": "nonpayable",
      "type": "function"
    },
    {
      "inputs": [],
      "name": "name",
      "outputs": [
        {
          "internalType": "string",
          "name": "",
          "type": "string"
        }
      ],
      "stateMutability": "view",
      "type": "function"
    },
    {
      "inputs": [
        {
          "internalType": "uint256",
          "name": "tokenId",
          "type": "uint256"
        }
      ],
      "name": "ownerOf",
      "outputs": [
        {
          "internalType": "address",
          "name": "",
          "type": "address"
        }
      ],
      "stateMutability": "view",
      "type": "function"
    },
    {
      "inputs": [
        {
          "internalType": "bytes32",
          "name": "role",
          "type": "bytes32"
        },
        {
          "internalType": "address",
          "name": "callerConfirmation",
          "type": "address"
        }
      ],
      "name": "renounceRole",
      "outputs": [],
      "stateMutability": "nonpayable",
      "type": "function"
    },
    {
      "inputs": [
        {
          "internalType": "bytes32",
          "name": "role",
          "type": "bytes32"
        },
        {
          "internalType": "address",
          "name": "account",
          "type": "address"
        }
      ],
      "name": "revokeRole",
      "outputs": [],
      "stateMutability": "nonpayable",
      "type": "function"
    },
    {
      "inputs": [
        {
          "internalType": "address",
          "name": "from",
          "type": "address"
        },
        {
          "internalType": "address",
          "name": "to",
          "type": "address"
        },
        {
          "internalType": "uint256",
          "name": "tokenId",
          "type": "uint256"
        }
      ],
      "name": "safeTransferFrom",
      "outputs": [],
      "stateMutability": "nonpayable",
      "type": "function"
    },
    {
      "inputs": [
        {
          "internalType": "address",
          "name": "from",
          "type": "address"
        },
        {
          "internalType": "address",
          "name": "to",
          "type": "address"
        },
        {
          "internalType": "uint256",
          "name": "tokenId",
          "type": "uint256"
        },
        {
          "internalType": "bytes",
          "name": "data",
          "type": "bytes"
        }
      ],
      "name": "safeTransferFrom",
      "outputs": [],
      "stateMutability": "nonpayable",
      "type": "function"
    },
    {
      "inputs": [
        {
          "internalType": "address",
          "name": "operator",
          "type": "address"
        },
        {
          "internalType": "bool",
          "name": "approved",
          "type": "bool"
        }
      ],
      "name": "setApprovalForAll",
      "outputs": [],
      "stateMutability": "nonpayable",
      "type": "function"
    },
    {
      "inputs": [
        {
          "internalType": "bytes4",
          "name": "interfaceId",
          "type": "bytes4"
        }
      ],
      "name": "supportsInterface",
      "outputs": [
        {
          "internalType": "bool",
          "name": "",
          "type": "bool"
        }
      ],
      "stateMutability": "view",
      "type": "function"
    },
    {
      "inputs": [],
      "name": "symbol",
      "outputs": [
        {
          "internalType": "string",
          "name": "",
          "type": "string"
        }
      ],
      "stateMutability": "view",
      "type": "function"
    },
    {
      "inputs": [
        {
          "internalType": "uint256",
          "name": "tokenId",
          "type": "uint256"
        }
      ],
      "name": "tokenURI",
      "outputs": [
        {
          "internalType": "string",
          "name": "",
          "type": "string"
        }
      ],
      "stateMutability": "view",
      "type": "function"
    },
    {
      "inputs": [
        {
          "internalType": "address",
          "name": "from",
          "type": "address"
        },
        {
          "internalType": "address",
          "name": "to",
          "type": "address"
        },
        {
          "internalType": "uint256",
          "name": "tokenId",
          "type": "uint256"
        }
      ],
      "name": "transferFrom",
      "outputs": [],
      "stateMutability": "nonpayable",
      "type": "function"
    }
  ],
  "bytecode": "0x608060405234801561000f575f5ffd5b506040518060400160405280600b81526020017f45766964656e63654e46540000000000000000000000000000000000000000008152506040518060400160405280600781526020017f4556542d4e465400000000000000000000000000000000000000000000000000815250815f908161008a9190610484565b50806001908161009a9190610484565b5050506100af5f5f1b336100e660201b60201c565b506100e07fe1a65d1a914580ff6931bc952f0fb26573e9282358a4458bceb9ccc6d923d041336100e660201b60201c565b50610553565b5f6100f783836101dc60201b60201c565b6101d257600160065f8581526020019081526020015f205f015f8473ffffffffffffffffffffffffffffffffffffffff1673ffffffffffffffffffffffffffffffffffffffff1681526020019081526020015f205f6101000a81548160ff02191690831515021790555061016f61024060201b60201c565b73ffffffffffffffffffffffffffffffffffffffff168273ffffffffffffffffffffffffffffffffffffffff16847f2f8788117e7eff1d82e926ec794901d17c78024a50270940304540a733656f0d60405160405180910390a4600190506101d6565b5f90505b92915050565b5f60065f8481526020019081526020015f205f015f8373ffffffffffffffffffffffffffffffffffffffff1673ffffffffffffffffffffffffffffffffffffffff1681526020019081526020015f205f9054906101000a900460ff16905092915050565b5f33905090565b5f81519050919050565b7f4e487b71000000000000000000000000000000000000000000000000000000005f52604160045260245ffd5b7f4e487b71000000000000000000000000000000000000000000000000000000005f52602260045260245ffd5b5f60028204905060018216806102c257607f821691505b6020821081036102d5576102d461027e565b5b50919050565b5f819050815f5260205f209050919050565b5f6020601f8301049050919050565b5f82821b905092915050565b5f600883026103377fffffffffffffffffffffffffffffffffffffffffffffffffffffffffffffffff826102fc565b61034186836102fc565b95508019841693508086168417925050509392505050565b5f819050919050565b5f819050919050565b5f61038561038061037b84610359565b610362565b610359565b9050919050565b5f819050919050565b61039e8361036b565b6103b26103aa8261038c565b848454610308565b825550505050565b5f5f905090565b6103c96103ba565b6103d4818484610395565b505050565b5b818110156103f7576103ec5f826103c1565b6001810190506103da565b5050565b601f82111561043c5761040d816102db565b610416846102ed565b81016020851015610425578190505b610439610431856102ed565b8301826103d9565b50505b505050565b5f82821c905092915050565b5f61045c5f1984600802610441565b1980831691505092915050565b5f610474838361044d565b9150826002028217905092915050565b61048d82610247565b67ffffffffffffffff8111156104a6576104a5610251565b5b6104b082546102ab565b6104bb8282856103fb565b5f60209050601f8311600181146104ec575f84156104da578287015190505b6104e48582610469565b86555061054b565b601f1984166104fa866102db565b5f5b82811015610521578489015182556001820191506020850194506020810190506104fc565b8683101561053e578489015161053a601f89168261044d565b8355505b6001600288020188555050505b505050505050565b612d0b806105605f395ff3fe608060405234801561000f575f5ffd5b5060043610610140575f3560e01c80636bce6f53116100b6578063a217fddf1161007a578063a217fddf146103af578063a22cb465146103cd578063b88d4fde146103e9578063c87b56dd14610405578063d547741f14610435578063e985e9c51461045157610140565b80636bce6f53146102e357806370a082311461031357806391712a0b1461034357806391d148541461036157806395d89b411461039157610140565b8063248a9ca311610108578063248a9ca3146101fa5780632f2ff15d1461022a57806336568abe146102465780633c97702a1461026257806342842e0e146102975780636352211e146102b357610140565b806301ffc9a71461014457806306fdde0314610174578063081812fc14610192578063095ea7b3146101c257806323b872dd146101de575b5f5ffd5b61015e60048036038101906101599190611fd6565b610481565b60405161016b919061201b565b60405180910390f35b61017c610492565b60405161018991906120a4565b60405180910390f35b6101ac60048036038101906101a791906120f7565b610521565b6040516101b99190612161565b60405180910390f35b6101dc60048036038101906101d791906121a4565b61053c565b005b6101f860048036038101906101f391906121e2565b610552565b005b610214600480360381019061020f9190612265565b610651565b604051610221919061229f565b60405180910390f35b610244600480360381019061023f91906122b8565b61066e565b005b610260600480360381019061025b91906122b8565b610690565b005b61027c600480360381019061027791906120f7565b61070b565b60405161028e969594939291906122f6565b60405180910390f35b6102b160048036038101906102ac91906121e2565b61097a565b005b6102cd60048036038101906102c891906120f7565b610999565b6040516102da9190612161565b60405180910390f35b6102fd60048036038101906102f8919061249d565b6109aa565b60405161030a91906125a5565b60405180910390f35b61032d600480360381019061032891906125be565b610b08565b60405161033a91906125a5565b60405180910390f35b61034b610bbe565b604051610358919061229f565b60405180910390f35b61037b600480360381019061037691906122b8565b610be2565b604051610388919061201b565b60405180910390f35b610399610c46565b6040516103a691906120a4565b60405180910390f35b6103b7610cd6565b6040516103c4919061229f565b60405180910390f35b6103e760048036038101906103e29190612613565b610cdc565b005b61040360048036038101906103fe91906126ef565b610cf2565b005b61041f600480360381019061041a91906120f7565b610d17565b60405161042c91906120a4565b60405180910390f35b61044f600480360381019061044a91906122b8565b610d7d565b005b61046b6004803603810190610466919061276f565b610d9f565b604051610478919061201b565b60405180910390f35b5f61048b82610e2d565b9050919050565b60605f80546104a0906127da565b80601f01602080910402602001604051908101604052809291908181526020018280546104cc906127da565b80156105175780601f106104ee57610100808354040283529160200191610517565b820191905f5260205f20905b8154815290600101906020018083116104fa57829003601f168201915b5050505050905090565b5f61052b82610ea6565b5061053582610f2c565b9050919050565b61054e8282610549610f65565b610f6c565b5050565b5f73ffffffffffffffffffffffffffffffffffffffff168273ffffffffffffffffffffffffffffffffffffffff16036105c2575f6040517f64a0ae920000000000000000000000000000000000000000000000000000000081526004016105b99190612161565b60405180910390fd5b5f6105d583836105d0610f65565b610f7e565b90508373ffffffffffffffffffffffffffffffffffffffff168173ffffffffffffffffffffffffffffffffffffffff161461064b578382826040517f64283d7b0000000000000000000000000000000000000000000000000000000081526004016106429392919061280a565b60405180910390fd5b50505050565b5f60065f8381526020019081526020015f20600101549050919050565b61067782610651565b61068081611189565b61068a838361119d565b50505050565b610698610f65565b73ffffffffffffffffffffffffffffffffffffffff168173ffffffffffffffffffffffffffffffffffffffff16146106fc576040517f6697b23200000000000000000000000000000000000000000000000000000000815260040160405180910390fd5b6107068282611287565b505050565b6008602052805f5260405f205f91509050805f01805461072a906127da565b80601f0160208091040260200160405190810160405280929190818152602001828054610756906127da565b80156107a15780601f10610778576101008083540402835291602001916107a1565b820191905f5260205f20905b81548152906001019060200180831161078457829003601f168201915b5050505050908060010180546107b6906127da565b80601f01602080910402602001604051908101604052809291908181526020018280546107e2906127da565b801561082d5780601f106108045761010080835404028352916020019161082d565b820191905f5260205f20905b81548152906001019060200180831161081057829003601f168201915b505050505090806002015490806003018054610848906127da565b80601f0160208091040260200160405190810160405280929190818152602001828054610874906127da565b80156108bf5780601f10610896576101008083540402835291602001916108bf565b820191905f5260205f20905b8154815290600101906020018083116108a257829003601f168201915b5050505050908060040180546108d4906127da565b80601f0160208091040260200160405190810160405280929190818152602001828054610900906127da565b801561094b5780601f106109225761010080835404028352916020019161094b565b820191905f5260205f20905b81548152906001019060200180831161092e57829003601f168201915b505050505090806005015f9054906101000a900473ffffffffffffffffffffffffffffffffffffffff16905086565b61099483838360405180602001604052805f815250610cf2565b505050565b5f6109a382610ea6565b9050919050565b5f7fe1a65d1a914580ff6931bc952f0fb26573e9282358a4458bceb9ccc6d923d0416109d581611189565b5f600754905060075f8154809291906109ed9061286c565b91905055506109fc8982611371565b6040518060c001604052808981526020018881526020018781526020018681526020018581526020018a73ffffffffffffffffffffffffffffffffffffffff1681525060085f8381526020019081526020015f205f820151815f019081610a639190612a53565b506020820151816001019081610a799190612a53565b50604082015181600201556060820151816003019081610a999190612a53565b506080820151816004019081610aaf9190612a53565b5060a0820151816005015f6101000a81548173ffffffffffffffffffffffffffffffffffffffff021916908373ffffffffffffffffffffffffffffffffffffffff16021790555090505080925050509695505050505050565b5f5f73ffffffffffffffffffffffffffffffffffffffff168273ffffffffffffffffffffffffffffffffffffffff1603610b79575f6040517f89c62b64000000000000000000000000000000000000000000000000000000008152600401610b709190612161565b60405180910390fd5b60035f8373ffffffffffffffffffffffffffffffffffffffff1673ffffffffffffffffffffffffffffffffffffffff1681526020019081526020015f20549050919050565b7fe1a65d1a914580ff6931bc952f0fb26573e9282358a4458bceb9ccc6d923d04181565b5f60065f8481526020019081526020015f205f015f8373ffffffffffffffffffffffffffffffffffffffff1673ffffffffffffffffffffffffffffffffffffffff1681526020019081526020015f205f9054906101000a900460ff16905092915050565b606060018054610c55906127da565b80601f0160208091040260200160405190810160405280929190818152602001828054610c81906127da565b8015610ccc5780601f10610ca357610100808354040283529160200191610ccc565b820191905f5260205f20905b815481529060010190602001808311610caf57829003601f168201915b5050505050905090565b5f5f1b81565b610cee610ce7610f65565b838361138e565b5050565b610cfd848484610552565b610d11610d08610f65565b85858585611567565b50505050565b6060610d2282610ea6565b505f610d2c611713565b90505f815111610d4a5760405180602001604052805f815250610d75565b80610d5484611729565b604051602001610d65929190612b5c565b6040516020818303038152906040525b915050919050565b610d8682610651565b610d8f81611189565b610d998383611287565b50505050565b5f60055f8473ffffffffffffffffffffffffffffffffffffffff1673ffffffffffffffffffffffffffffffffffffffff1681526020019081526020015f205f8373ffffffffffffffffffffffffffffffffffffffff1673ffffffffffffffffffffffffffffffffffffffff1681526020019081526020015f205f9054906101000a900460ff16905092915050565b5f7f7965db0b000000000000000000000000000000000000000000000000000000007bffffffffffffffffffffffffffffffffffffffffffffffffffffffff1916827bffffffffffffffffffffffffffffffffffffffffffffffffffffffff19161480610e9f5750610e9e826117f3565b5b9050919050565b5f5f610eb1836118d4565b90505f73ffffffffffffffffffffffffffffffffffffffff168173ffffffffffffffffffffffffffffffffffffffff1603610f2357826040517f7e273289000000000000000000000000000000000000000000000000000000008152600401610f1a91906125a5565b60405180910390fd5b80915050919050565b5f60045f8381526020019081526020015f205f9054906101000a900473ffffffffffffffffffffffffffffffffffffffff169050919050565b5f33905090565b610f79838383600161190d565b505050565b5f5f610f89846118d4565b90505f73ffffffffffffffffffffffffffffffffffffffff168373ffffffffffffffffffffffffffffffffffffffff1614610fca57610fc9818486611acc565b5b5f73ffffffffffffffffffffffffffffffffffffffff168173ffffffffffffffffffffffffffffffffffffffff1614611055576110095f855f5f61190d565b600160035f8373ffffffffffffffffffffffffffffffffffffffff1673ffffffffffffffffffffffffffffffffffffffff1681526020019081526020015f205f82825403925050819055505b5f73ffffffffffffffffffffffffffffffffffffffff168573ffffffffffffffffffffffffffffffffffffffff16146110d457600160035f8773ffffffffffffffffffffffffffffffffffffffff1673ffffffffffffffffffffffffffffffffffffffff1681526020019081526020015f205f82825401925050819055505b8460025f8681526020019081526020015f205f6101000a81548173ffffffffffffffffffffffffffffffffffffffff021916908373ffffffffffffffffffffffffffffffffffffffff160217905550838573ffffffffffffffffffffffffffffffffffffffff168273ffffffffffffffffffffffffffffffffffffffff167fddf252ad1be2c89b69c2b068fc378daa952ba7f163c4a11628f55a4df523b3ef60405160405180910390a4809150509392505050565b61119a81611195610f65565b611b8f565b50565b5f6111a88383610be2565b61127d57600160065f8581526020019081526020015f205f015f8473ffffffffffffffffffffffffffffffffffffffff1673ffffffffffffffffffffffffffffffffffffffff1681526020019081526020015f205f6101000a81548160ff02191690831515021790555061121a610f65565b73ffffffffffffffffffffffffffffffffffffffff168273ffffffffffffffffffffffffffffffffffffffff16847f2f8788117e7eff1d82e926ec794901d17c78024a50270940304540a733656f0d60405160405180910390a460019050611281565b5f90505b92915050565b5f6112928383610be2565b15611367575f60065f8581526020019081526020015f205f015f8473ffffffffffffffffffffffffffffffffffffffff1673ffffffffffffffffffffffffffffffffffffffff1681526020019081526020015f205f6101000a81548160ff021916908315150217905550611304610f65565b73ffffffffffffffffffffffffffffffffffffffff168273ffffffffffffffffffffffffffffffffffffffff16847ff6391f5c32d9c69d2a47ea670b442974b53935d1edc7fd64eb21e047a839171b60405160405180910390a46001905061136b565b5f90505b92915050565b61138a828260405180602001604052805f815250611be0565b5050565b5f73ffffffffffffffffffffffffffffffffffffffff168373ffffffffffffffffffffffffffffffffffffffff16036113fe575f6040517fa9fbf51f0000000000000000000000000000000000000000000000000000000081526004016113f59190612161565b60405180910390fd5b5f73ffffffffffffffffffffffffffffffffffffffff168273ffffffffffffffffffffffffffffffffffffffff160361146e57816040517f5b08ba180000000000000000000000000000000000000000000000000000000081526004016114659190612161565b60405180910390fd5b8060055f8573ffffffffffffffffffffffffffffffffffffffff1673ffffffffffffffffffffffffffffffffffffffff1681526020019081526020015f205f8473ffffffffffffffffffffffffffffffffffffffff1673ffffffffffffffffffffffffffffffffffffffff1681526020019081526020015f205f6101000a81548160ff0219169083151502179055508173ffffffffffffffffffffffffffffffffffffffff168373ffffffffffffffffffffffffffffffffffffffff167f17307eab39ab6107e8899845ad3d59bd9653f200f220920489ca2b5937696c318360405161155a919061201b565b60405180910390a3505050565b5f8373ffffffffffffffffffffffffffffffffffffffff163b111561170c578273ffffffffffffffffffffffffffffffffffffffff1663150b7a02868685856040518563ffffffff1660e01b81526004016115c59493929190612bd1565b6020604051808303815f875af192505050801561160057506040513d601f19601f820116820180604052508101906115fd9190612c2f565b60015b611681573d805f811461162e576040519150601f19603f3d011682016040523d82523d5f602084013e611633565b606091505b505f81510361167957836040517f64a0ae920000000000000000000000000000000000000000000000000000000081526004016116709190612161565b60405180910390fd5b805160208201fd5b63150b7a0260e01b7bffffffffffffffffffffffffffffffffffffffffffffffffffffffff1916817bffffffffffffffffffffffffffffffffffffffffffffffffffffffff19161461170a57836040517f64a0ae920000000000000000000000000000000000000000000000000000000081526004016117019190612161565b60405180910390fd5b505b5050505050565b606060405180602001604052805f815250905090565b60605f600161173784611c03565b0190505f8167ffffffffffffffff81111561175557611754612379565b5b6040519080825280601f01601f1916602001820160405280156117875781602001600182028036833780820191505090505b5090505f82602083010190505b6001156117e8578080600190039150507f3031323334353637383961626364656600000000000000000000000000000000600a86061a8153600a85816117dd576117dc612c5a565b5b0494505f8503611794575b819350505050919050565b5f7f80ac58cd000000000000000000000000000000000000000000000000000000007bffffffffffffffffffffffffffffffffffffffffffffffffffffffff1916827bffffffffffffffffffffffffffffffffffffffffffffffffffffffff191614806118bd57507f5b5e139f000000000000000000000000000000000000000000000000000000007bffffffffffffffffffffffffffffffffffffffffffffffffffffffff1916827bffffffffffffffffffffffffffffffffffffffffffffffffffffffff1916145b806118cd57506118cc82611d54565b5b9050919050565b5f60025f8381526020019081526020015f205f9054906101000a900473ffffffffffffffffffffffffffffffffffffffff169050919050565b808061194557505f73ffffffffffffffffffffffffffffffffffffffff168273ffffffffffffffffffffffffffffffffffffffff1614155b15611a77575f61195484610ea6565b90505f73ffffffffffffffffffffffffffffffffffffffff168373ffffffffffffffffffffffffffffffffffffffff16141580156119be57508273ffffffffffffffffffffffffffffffffffffffff168173ffffffffffffffffffffffffffffffffffffffff1614155b80156119d157506119cf8184610d9f565b155b15611a1357826040517fa9fbf51f000000000000000000000000000000000000000000000000000000008152600401611a0a9190612161565b60405180910390fd5b8115611a7557838573ffffffffffffffffffffffffffffffffffffffff168273ffffffffffffffffffffffffffffffffffffffff167f8c5be1e5ebec7d5bd14f71427d1e84f3dd0314c0f7b2291e5b200ac8c7c3b92560405160405180910390a45b505b8360045f8581526020019081526020015f205f6101000a81548173ffffffffffffffffffffffffffffffffffffffff021916908373ffffffffffffffffffffffffffffffffffffffff16021790555050505050565b611ad7838383611dbd565b611b8a575f73ffffffffffffffffffffffffffffffffffffffff168373ffffffffffffffffffffffffffffffffffffffff1603611b4b57806040517f7e273289000000000000000000000000000000000000000000000000000000008152600401611b4291906125a5565b60405180910390fd5b81816040517f177e802f000000000000000000000000000000000000000000000000000000008152600401611b81929190612c87565b60405180910390fd5b505050565b611b998282610be2565b611bdc5780826040517fe2517d3f000000000000000000000000000000000000000000000000000000008152600401611bd3929190612cae565b60405180910390fd5b5050565b611bea8383611e7d565b611bfe611bf5610f65565b5f858585611567565b505050565b5f5f5f90507a184f03e93ff9f4daa797ed6e38ed64bf6a1f0100000000000000008310611c5f577a184f03e93ff9f4daa797ed6e38ed64bf6a1f0100000000000000008381611c5557611c54612c5a565b5b0492506040810190505b6d04ee2d6d415b85acef81000000008310611c9c576d04ee2d6d415b85acef81000000008381611c9257611c91612c5a565b5b0492506020810190505b662386f26fc100008310611ccb57662386f26fc100008381611cc157611cc0612c5a565b5b0492506010810190505b6305f5e1008310611cf4576305f5e1008381611cea57611ce9612c5a565b5b0492506008810190505b6127108310611d19576127108381611d0f57611d0e612c5a565b5b0492506004810190505b60648310611d3c5760648381611d3257611d31612c5a565b5b0492506002810190505b600a8310611d4b576001810190505b80915050919050565b5f7f01ffc9a7000000000000000000000000000000000000000000000000000000007bffffffffffffffffffffffffffffffffffffffffffffffffffffffff1916827bffffffffffffffffffffffffffffffffffffffffffffffffffffffff1916149050919050565b5f5f73ffffffffffffffffffffffffffffffffffffffff168373ffffffffffffffffffffffffffffffffffffffff1614158015611e7457508273ffffffffffffffffffffffffffffffffffffffff168473ffffffffffffffffffffffffffffffffffffffff161480611e355750611e348484610d9f565b5b80611e7357508273ffffffffffffffffffffffffffffffffffffffff16611e5b83610f2c565b73ffffffffffffffffffffffffffffffffffffffff16145b5b90509392505050565b5f73ffffffffffffffffffffffffffffffffffffffff168273ffffffffffffffffffffffffffffffffffffffff1603611eed575f6040517f64a0ae92000000000000000000000000000000000000000000000000000000008152600401611ee49190612161565b60405180910390fd5b5f611ef983835f610f7e565b90505f73ffffffffffffffffffffffffffffffffffffffff168173ffffffffffffffffffffffffffffffffffffffff1614611f6b575f6040517f73c6ac6e000000000000000000000000000000000000000000000000000000008152600401611f629190612161565b60405180910390fd5b505050565b5f604051905090565b5f5ffd5b5f5ffd5b5f7fffffffff0000000000000000000000000000000000000000000000000000000082169050919050565b611fb581611f81565b8114611fbf575f5ffd5b50565b5f81359050611fd081611fac565b92915050565b5f60208284031215611feb57611fea611f79565b5b5f611ff884828501611fc2565b91505092915050565b5f8115159050919050565b61201581612001565b82525050565b5f60208201905061202e5f83018461200c565b92915050565b5f81519050919050565b5f82825260208201905092915050565b8281835e5f83830152505050565b5f601f19601f8301169050919050565b5f61207682612034565b612080818561203e565b935061209081856020860161204e565b6120998161205c565b840191505092915050565b5f6020820190508181035f8301526120bc818461206c565b905092915050565b5f819050919050565b6120d6816120c4565b81146120e0575f5ffd5b50565b5f813590506120f1816120cd565b92915050565b5f6020828403121561210c5761210b611f79565b5b5f612119848285016120e3565b91505092915050565b5f73ffffffffffffffffffffffffffffffffffffffff82169050919050565b5f61214b82612122565b9050919050565b61215b81612141565b82525050565b5f6020820190506121745f830184612152565b92915050565b61218381612141565b811461218d575f5ffd5b50565b5f8135905061219e8161217a565b92915050565b5f5f604083850312156121ba576121b9611f79565b5b5f6121c785828601612190565b92505060206121d8858286016120e3565b9150509250929050565b5f5f5f606084860312156121f9576121f8611f79565b5b5f61220686828701612190565b935050602061221786828701612190565b9250506040612228868287016120e3565b9150509250925092565b5f819050919050565b61224481612232565b811461224e575f5ffd5b50565b5f8135905061225f8161223b565b92915050565b5f6020828403121561227a57612279611f79565b5b5f61228784828501612251565b91505092915050565b61229981612232565b82525050565b5f6020820190506122b25f830184612290565b92915050565b5f5f604083850312156122ce576122cd611f79565b5b5f6122db85828601612251565b92505060206122ec85828601612190565b9150509250929050565b5f60c0820190508181035f83015261230e818961206c565b90508181036020830152612322818861206c565b90506123316040830187612290565b8181036060830152612343818661206c565b90508181036080830152612357818561206c565b905061236660a0830184612152565b979650505050505050565b5f5ffd5b5f5ffd5b7f4e487b71000000000000000000000000000000000000000000000000000000005f52604160045260245ffd5b6123af8261205c565b810181811067ffffffffffffffff821117156123ce576123cd612379565b5b80604052505050565b5f6123e0611f70565b90506123ec82826123a6565b919050565b5f67ffffffffffffffff82111561240b5761240a612379565b5b6124148261205c565b9050602081019050919050565b828183375f83830152505050565b5f61244161243c846123f1565b6123d7565b90508281526020810184848401111561245d5761245c612375565b5b612468848285612421565b509392505050565b5f82601f83011261248457612483612371565b5b813561249484826020860161242f565b91505092915050565b5f5f5f5f5f5f60c087890312156124b7576124b6611f79565b5b5f6124c489828a01612190565b965050602087013567ffffffffffffffff8111156124e5576124e4611f7d565b5b6124f189828a01612470565b955050604087013567ffffffffffffffff81111561251257612511611f7d565b5b61251e89828a01612470565b945050606061252f89828a01612251565b935050608087013567ffffffffffffffff8111156125505761254f611f7d565b5b61255c89828a01612470565b92505060a087013567ffffffffffffffff81111561257d5761257c611f7d565b5b61258989828a01612470565b9150509295509295509295565b61259f816120c4565b82525050565b5f6020820190506125b85f830184612596565b92915050565b5f602082840312156125d3576125d2611f79565b5b5f6125e084828501612190565b91505092915050565b6125f281612001565b81146125fc575f5ffd5b50565b5f8135905061260d816125e9565b92915050565b5f5f6040838503121561262957612628611f79565b5b5f61263685828601612190565b9250506020612647858286016125ff565b9150509250929050565b5f67ffffffffffffffff82111561266b5761266a612379565b5b6126748261205c565b9050602081019050919050565b5f61269361268e84612651565b6123d7565b9050828152602081018484840111156126af576126ae612375565b5b6126ba848285612421565b509392505050565b5f82601f8301126126d6576126d5612371565b5b81356126e6848260208601612681565b91505092915050565b5f5f5f5f6080858703121561270757612706611f79565b5b5f61271487828801612190565b945050602061272587828801612190565b9350506040612736878288016120e3565b925050606085013567ffffffffffffffff81111561275757612756611f7d565b5b612763878288016126c2565b91505092959194509250565b5f5f6040838503121561278557612784611f79565b5b5f61279285828601612190565b92505060206127a385828601612190565b9150509250929050565b7f4e487b71000000000000000000000000000000000000000000000000000000005f52602260045260245ffd5b5f60028204905060018216806127f157607f821691505b602082108103612804576128036127ad565b5b50919050565b5f60608201905061281d5f830186612152565b61282a6020830185612596565b6128376040830184612152565b949350505050565b7f4e487b71000000000000000000000000000000000000000000000000000000005f52601160045260245ffd5b5f612876826120c4565b91507fffffffffffffffffffffffffffffffffffffffffffffffffffffffffffffffff82036128a8576128a761283f565b5b600182019050919050565b5f819050815f5260205f209050919050565b5f6020601f8301049050919050565b5f82821b905092915050565b5f6008830261290f7fffffffffffffffffffffffffffffffffffffffffffffffffffffffffffffffff826128d4565b61291986836128d4565b95508019841693508086168417925050509392505050565b5f819050919050565b5f61295461294f61294a846120c4565b612931565b6120c4565b9050919050565b5f819050919050565b61296d8361293a565b6129816129798261295b565b8484546128e0565b825550505050565b5f5f905090565b612998612989565b6129a3818484612964565b505050565b5b818110156129c6576129bb5f82612990565b6001810190506129a9565b5050565b601f821115612a0b576129dc816128b3565b6129e5846128c5565b810160208510156129f4578190505b612a08612a00856128c5565b8301826129a8565b50505b505050565b5f82821c905092915050565b5f612a2b5f1984600802612a10565b1980831691505092915050565b5f612a438383612a1c565b9150826002028217905092915050565b612a5c82612034565b67ffffffffffffffff811115612a7557612a74612379565b5b612a7f82546127da565b612a8a8282856129ca565b5f60209050601f831160018114612abb575f8415612aa9578287015190505b612ab38582612a38565b865550612b1a565b601f198416612ac9866128b3565b5f5b82811015612af057848901518255600182019150602085019450602081019050612acb565b86831015612b0d5784890151612b09601f891682612a1c565b8355505b6001600288020188555050505b505050505050565b5f81905092915050565b5f612b3682612034565b612b408185612b22565b9350612b5081856020860161204e565b80840191505092915050565b5f612b678285612b2c565b9150612b738284612b2c565b91508190509392505050565b5f81519050919050565b5f82825260208201905092915050565b5f612ba382612b7f565b612bad8185612b89565b9350612bbd81856020860161204e565b612bc68161205c565b840191505092915050565b5f608082019050612be45f830187612152565b612bf16020830186612152565b612bfe6040830185612596565b8181036060830152612c108184612b99565b905095945050505050565b5f81519050612c2981611fac565b92915050565b5f60208284031215612c4457612c43611f79565b5b5f612c5184828501612c1b565b91505092915050565b7f4e487b71000000000000000000000000000000000000000000000000000000005f52601260045260245ffd5b5f604082019050612c9a5f830185612152565b612ca76020830184612596565b9392505050565b5f604082019050612cc15f830185612152565b612cce6020830184612290565b939250505056fea264697066735822122027c3506fdc07ffed4800683ea3027773bcb2e33d500ac98d2ef31afb975239ab64736f6c634300081c0033",
  "linkReferences": {},
  "deployedLinkReferences": {},
  "immutableReferences": {},
  "inputSourceName": "project/contracts/EvidenceToken.sol",
  "buildInfoId": "solc-0_8_28-3c4fae395984bbee38933405123a5a29a4fe46db"
}