{
  "_format": "hh3-artifact-1",
  "contractName": "EvidenceSystem",
  "sourceName": "contracts/Evidence.sol",
  "abi": [
    {
      "inputs": [
        {
          "internalType": "address",
          "name": "_tokenAddress",
          "type": "address"
        }
      ],
      "stateMutability": "nonpayable",
      "type": "constructor"
    },
    {
      "inputs": [],
      "name": "AccessControlBadConfirmation",
      "type": "error"
    },
    {
      "inputs": [
        {
          "internalType": "address",
          "name": "account",
          "type": "address"
        },
        {
          "internalType": "bytes32",
          "name": "neededRole",
          "type": "bytes32"
        }
      ],
      "name": "AccessControlUnauthorizedAccount",
      "type": "error"
    },
    {
      "anonymous": false,
      "inputs": [
        {
          "indexed": false,
          "internalType": "string",
          "name": "caseId",
          "type": "string"
        },
        {
          "indexed": false,
          "internalType": "address",
          "name": "submitter",
          "type": "address"
        }
      ],
      "name": "CaseAssigned",
      "type": "event"
    },
    {
      "anonymous": false,
      "inputs": [
        {
          "indexed": false,
          "internalType": "string",
          "name": "caseId",
          "type": "string"
        },
        {
          "indexed": false,
          "internalType": "string",
          "name": "postcode",
          "type": "string"
        },
        {
          "indexed": true,
          "internalType": "address",
          "name": "regionalAdmin",
          "type": "address"
        }
      ],
      "name": "CaseCreated",
      "type": "event"
    },
    {
      "anonymous": false,
      "inputs": [
        {
          "indexed": false,
          "internalType": "string",
          "name": "caseId",
          "type": "string"
        },
        {
          "indexed": false,
          "internalType": "string",
          "name": "newStatus",
          "type": "string"
        }
      ],
      "name": "CaseStatusUpdated",
      "type": "event"
    },
    {
      "anonymous": false,
      "inputs": [
        {
          "indexed": false,
          "internalType": "string",
          "name": "caseId",
          "type": "string"
        },
        {
          "indexed": false,
          "internalType": "bytes32",
          "name": "evidenceId",
          "type": "bytes32"
        },
        {
          "indexed": false,
          "internalType": "address",
          "name": "submitter",
          "type": "address"
        }
      ],
      "name": "EvidenceUploaded",
      "type": "event"
    },
    {
      "anonymous": false,
      "inputs": [
        {
          "indexed": false,
          "internalType": "bytes32",
          "name": "evidenceId",
          "type": "bytes32"
        },
        {
          "indexed": true,
          "internalType": "address",
          "name": "verifier",
          "type": "address"
        }
      ],
      "name": "EvidenceVerified",
      "type": "event"
    },
    {
      "anonymous": false,
      "inputs": [
        {
          "indexed": true,
          "internalType": "bytes32",
          "name": "role",
          "type": "bytes32"
        },
        {
          "indexed": true,
          "internalType": "bytes32",
          "name": "previousAdminRole",
          "type": "bytes32"
        },
        {
          "indexed": true,
          "internalType": "bytes32",
          "name": "newAdminRole",
          "type": "bytes32"
        }
      ],
      "name": "RoleAdminChanged",
      "type": "event"
    },
    {
      "anonymous": false,
      "inputs": [
        {
          "indexed": true,
          "internalType": "bytes32",
          "name": "role",
          "type": "bytes32"
        },
        {
          "indexed": true,
          "internalType": "address",
          "name": "account",
          "type": "address"
        },
        {
          "indexed": true,
          "internalType": "address",
          "name": "sender",
          "type": "address"
        }
      ],
      "name": "RoleGranted",
      "type": "event"
    },
    {
      "anonymous": false,
      "inputs": [
        {
          "indexed": true,
          "internalType": "bytes32",
          "name": "role",
          "type": "bytes32"
        },
        {
          "indexed": true,
          "internalType": "address",
          "name": "account",
          "type": "address"
        },
        {
          "indexed": true,
          "internalType": "address",
          "name": "sender",
          "type": "address"
        }
      ],
      "name": "RoleRevoked",
      "type": "event"
    },
    {
      "inputs": [],
      "name": "DEFAULT_ADMIN_ROLE",
      "outputs": [
        {
          "internalType": "bytes32",
          "name": "",
          "type": "bytes32"
        }
      ],
      "stateMutability": "view",
      "type": "function"
    },
    {
      "inputs": [],
      "name": "REGIONAL_ADMIN_ROLE",
      "outputs": [
        {
          "internalType": "bytes32",
          "name": "",
          "type": "bytes32"
        }
      ],
      "stateMutability": "view",
      "type": "function"
    },
    {
      "inputs": [],
      "name": "SUBMITTER_ROLE",
      "outputs": [
        {
          "internalType": "bytes32",
          "name": "",
          "type": "bytes32"
        }
      ],
      "stateMutability": "view",
      "type": "function"
    },
    {
      "inputs": [
        {
          "internalType": "address",
          "name": "_admin",
          "type": "address"
        },
        {
          "internalType": "string",
          "name": "_postcode",
          "type": "string"
        }
      ],
      "name": "addRegionalAdmin",
      "outputs": [],
      "stateMutability": "nonpayable",
      "type": "function"
    },
    {
      "inputs": [
        {
          "internalType": "address",
          "name": "",
          "type": "address"
        }
      ],
      "name": "adminRegion",
      "outputs": [
        {
          "internalType": "string",
          "name": "",
          "type": "string"
        }
      ],
      "stateMutability": "view",
      "type": "function"
    },
    {
      "inputs": [
        {
          "internalType": "string",
          "name": "",
          "type": "string"
        }
      ],
      "name": "allCases",
      "outputs": [
        {
          "internalType": "string",
          "name": "caseId",
          "type": "string"
        },
        {
          "internalType": "string",
          "name": "casePostcode",
          "type": "string"
        },
        {
          "internalType": "string",
          "name": "status",
          "type": "string"
        },
        {
          "internalType": "uint256",
          "name": "timestamp",
          "type": "uint256"
        },
        {
          "internalType": "address",
          "name": "caseRegionalAdmin",
          "type": "address"
        },
        {
          "internalType": "bool",
          "name": "exists",
          "type": "bool"
        }
      ],
      "stateMutability": "view",
      "type": "function"
    },
    {
      "inputs": [
        {
          "internalType": "bytes32",
          "name": "",
          "type": "bytes32"
        }
      ],
      "name": "allEvidence",
      "outputs": [
        {
          "internalType": "bool",
          "name": "isVer",
          "type": "bool"
        },
        {
          "internalType": "uint256",
          "name": "timestamp",
          "type": "uint256"
        },
        {
          "internalType": "bytes32",
          "name": "evidenceId",
          "type": "bytes32"
        },
        {
          "internalType": "string",
          "name": "caseId",
          "type": "string"
        },
        {
          "internalType": "string",
          "name": "evidenceType",
          "type": "string"
        },
        {
          "internalType": "bytes32",
          "name": "evidenceHash",
          "type": "bytes32"
        },
        {
          "internalType": "string",
          "name": "evidenceName",
          "type": "string"
        },
        {
          "internalType": "string",
          "name": "evidencelocation",
          "type": "string"
        },
        {
          "internalType": "address",
          "name": "submitter",
          "type": "address"
        },
        {
          "internalType": "address",
          "name": "approveBy",
          "type": "address"
        }
      ],
      "stateMutability": "view",
      "type": "function"
    },
    {
      "inputs": [
        {
          "internalType": "string",
          "name": "_caseId",
          "type": "string"
        },
        {
          "internalType": "address",
          "name": "_submitter",
          "type": "address"
        }
      ],
      "name": "assignCase",
      "outputs": [],
      "stateMutability": "nonpayable",
      "type": "function"
    },
    {
      "inputs": [
        {
          "internalType": "address",
          "name": "submitter",
          "type": "address"
        }
      ],
      "name": "authorizeSubmitter",
      "outputs": [],
      "stateMutability": "nonpayable",
      "type": "function"
    },
    {
      "inputs": [
        {
          "internalType": "string",
          "name": "_caseId",
          "type": "string"
        }
      ],
      "name": "caseExists",
      "outputs": [
        {
          "internalType": "bool",
          "name": "",
          "type": "bool"
        }
      ],
      "stateMutability": "view",
      "type": "function"
    },
    {
      "inputs": [],
      "name": "createCase",
      "outputs": [],
      "stateMutability": "nonpayable",
      "type": "function"
    },
    {
      "inputs": [
        {
          "internalType": "string",
          "name": "_caseId",
          "type": "string"
        }
      ],
      "name": "getAssignedSubmitters",
      "outputs": [
        {
          "internalType": "address[]",
          "name": "",
          "type": "address[]"
        }
      ],
      "stateMutability": "view",
      "type": "function"
    },
    {
      "inputs": [
        {
          "internalType": "bytes32",
          "name": "role",
          "type": "bytes32"
        }
      ],
      "name": "getRoleAdmin",
      "outputs": [
        {
          "internalType": "bytes32",
          "name": "",
          "type": "bytes32"
        }
      ],
      "stateMutability": "view",
      "type": "function"
    },
    {
      "inputs": [
        {
          "internalType": "address",
          "name": "account",
          "type": "address"
        }
      ],
      "name": "getRoles",
      "outputs": [
        {
          "internalType": "bool",
          "name": "isRootAdmin",
          "type": "bool"
        },
        {
          "internalType": "bool",
          "name": "isRegionalAdmin",
          "type": "bool"
        },
        {
          "internalType": "bool",
          "name": "isSubmitter",
          "type": "bool"
        }
      ],
      "stateMutability": "view",
      "type": "function"
    },
    {
      "inputs": [
        {
          "internalType": "bytes32",
          "name": "role",
          "type": "bytes32"
        },
        {
          "internalType": "address",
          "name": "account",
          "type": "address"
        }
      ],
      "name": "grantRole",
      "outputs": [],
      "stateMutability": "nonpayable",
      "type": "function"
    },
    {
      "inputs": [
        {
          "internalType": "bytes32",
          "name": "role",
          "type": "bytes32"
        },
        {
          "internalType": "address",
          "name": "account",
          "type": "address"
        }
      ],
      "name": "hasRole",
      "outputs": [
        {
          "internalType": "bool",
          "name": "",
          "type": "bool"
        }
      ],
      "stateMutability": "view",
      "type": "function"
    },
    {
      "inputs": [
        {
          "internalType": "bytes32",
          "name": "_id",
          "type": "bytes32"
        }
      ],
      "name": "readEvidence",
      "outputs": [
        {
          "internalType": "bool",
          "name": "verified",
          "type": "bool"
        },
        {
          "internalType": "string",
          "name": "loc",
          "type": "string"
        },
        {
          "internalType": "uint256",
          "name": "time",
          "type": "uint256"
        },
        {
          "internalType": "address",
          "name": "approver",
          "type": "address"
        }
      ],
      "stateMutability": "view",
      "type": "function"
    },
    {
      "inputs": [
        {
          "internalType": "string",
          "name": "",
          "type": "string"
        }
      ],
      "name": "regionalCaseCount",
      "outputs": [
        {
          "internalType": "uint256",
          "name": "",
          "type": "uint256"
        }
      ],
      "stateMutability": "view",
      "type": "function"
    },
    {
      "inputs": [
        {
          "internalType": "bytes32",
          "name": "role",
          "type": "bytes32"
        },
        {
          "internalType": "address",
          "name": "callerConfirmation",
          "type": "address"
        }
      ],
      "name": "renounceRole",
      "outputs": [],
      "stateMutability": "nonpayable",
      "type": "function"
    },
    {
      "inputs": [
        {
          "internalType": "bytes32",
          "name": "role",
          "type": "bytes32"
        },
        {
          "internalType": "address",
          "name": "account",
          "type": "address"
        }
      ],
      "name": "revokeRole",
      "outputs": [],
      "stateMutability": "nonpayable",
      "type": "function"
    },
    {
      "inputs": [
        {
          "internalType": "bytes4",
          "name": "interfaceId",
          "type": "bytes4"
        }
      ],
      "name": "supportsInterface",
      "outputs": [
        {
          "internalType": "bool",
          "name": "",
          "type": "bool"
        }
      ],
      "stateMutability": "view",
      "type": "function"
    },
    {
      "inputs": [],
      "name": "token",
      "outputs": [
        {
          "internalType": "contract EvidenceToken",
          "name": "",
          "type": "address"
        }
      ],
      "stateMutability": "view",
      "type": "function"
    },
    {
      "inputs": [
        {
          "internalType": "string",
          "name": "_caseId",
          "type": "string"
        },
        {
          "internalType": "string",
          "name": "_newStatus",
          "type": "string"
        }
      ],
      "name": "updateCaseStatus",
      "outputs": [],
      "stateMutability": "nonpayable",
      "type": "function"
    },
    {
      "inputs": [
        {
          "internalType": "string",
          "name": "_caseId",
          "type": "string"
        },
        {
          "internalType": "string",
          "name": "_evidenceName",
          "type": "string"
        },
        {
          "internalType": "bytes32",
          "name": "_evidenceHash",
          "type": "bytes32"
        },
        {
          "internalType": "string",
          "name": "_fileFormat",
          "type": "string"
        },
        {
          "internalType": "string",
          "name": "_location",
          "type": "string"
        }
      ],
      "name": "uploadEvidence",
      "outputs": [],
      "stateMutability": "nonpayable",
      "type": "function"
    },
    {
      "inputs": [],
      "name": "uploadFee",
      "outputs": [
        {
          "internalType": "uint256",
          "name": "",
          "type": "uint256"
        }
      ],
      "stateMutability": "view",
      "type": "function"
    },
    {
      "inputs": [
        {
          "internalType": "bytes32",
          "name": "_evidenceId",
          "type": "bytes32"
        }
      ],
      "name": "verifyEvidence",
      "outputs": [],
      "stateMutability": "nonpayable",
      "type": "function"
    }
  ],
  "bytecode": "0x6080604052678ac7230489e8000060025534801561001b575f5ffd5b50604051613a12380380613a12833981810160405281019061003d9190610253565b61004f5f5f1b3361009660201b60201c565b508060015f6101000a81548173ffffffffffffffffffffffffffffffffffffffff021916908373ffffffffffffffffffffffffffffffffffffffff1602179055505061027e565b5f6100a7838361018b60201b60201c565b6101815760015f5f8581526020019081526020015f205f015f8473ffffffffffffffffffffffffffffffffffffffff1673ffffffffffffffffffffffffffffffffffffffff1681526020019081526020015f205f6101000a81548160ff02191690831515021790555061011e6101ee60201b60201c565b73ffffffffffffffffffffffffffffffffffffffff168273ffffffffffffffffffffffffffffffffffffffff16847f2f8788117e7eff1d82e926ec794901d17c78024a50270940304540a733656f0d60405160405180910390a460019050610185565b5f90505b92915050565b5f5f5f8481526020019081526020015f205f015f8373ffffffffffffffffffffffffffffffffffffffff1673ffffffffffffffffffffffffffffffffffffffff1681526020019081526020015f205f9054906101000a900460ff16905092915050565b5f33905090565b5f5ffd5b5f73ffffffffffffffffffffffffffffffffffffffff82169050919050565b5f610222826101f9565b9050919050565b61023281610218565b811461023c575f5ffd5b50565b5f8151905061024d81610229565b92915050565b5f60208284031215610268576102676101f5565b5b5f6102758482850161023f565b91505092915050565b6137878061028b5f395ff3fe608060405234801561000f575f5ffd5b506004361061018c575f3560e01c80639136d41e116100dc578063a269e40011610095578063d547741f1161006f578063d547741f146104db578063dae5611b146104f7578063fc0c546a14610513578063ffd02891146105315761018c565b8063a269e40014610444578063ce6ccfaf14610479578063cf3bbdd0146104ab5761018c565b80639136d41e1461036757806391712a0b1461038357806391d14854146103a15780639c2adbe4146103d1578063a217fddf1461040a578063a22a18a0146104285761018c565b80632f2ff15d1161014957806347a27e731161012357806347a27e73146102cd578063554ad4c1146102fd5780636eb55d251461032d578063718e4890146103495761018c565b80632f2ff15d1461026257806336568abe1461027e5780633b368de31461029a5761018c565b806301ffc9a7146101905780630f1aaa25146101c05780631b9505ea146101dc578063248a9ca3146101e6578063253fa836146102165780632c10c15e14610246575b5f5ffd5b6101aa60048036038101906101a59190612461565b61054f565b6040516101b791906124a6565b60405180910390f35b6101da60048036038101906101d59190612655565b6105c8565b005b6101e461069a565b005b61020060048036038101906101fb91906126e2565b610ad8565b60405161020d919061271c565b60405180910390f35b610230600480360381019061022b9190612735565b610af4565b60405161023d91906124a6565b60405180910390f35b610260600480360381019061025b919061277c565b610b2b565b005b61027c60048036038101906102779190612863565b610f01565b005b61029860048036038101906102939190612863565b610f23565b005b6102b460048036038101906102af91906126e2565b610f9e565b6040516102c49493929190612928565b60405180910390f35b6102e760048036038101906102e29190612735565b611308565b6040516102f49190612972565b60405180910390f35b61031760048036038101906103129190612735565b611335565b6040516103249190612a42565b60405180910390f35b61034760048036038101906103429190612a62565b61144f565b005b61035161158c565b60405161035e919061271c565b60405180910390f35b610381600480360381019061037c91906126e2565b6115b0565b005b61038b611736565b604051610398919061271c565b60405180910390f35b6103bb60048036038101906103b69190612863565b61175a565b6040516103c891906124a6565b60405180910390f35b6103eb60048036038101906103e691906126e2565b6117bd565b6040516104019a99989796959493929190612abc565b60405180910390f35b610412611a6f565b60405161041f919061271c565b60405180910390f35b610442600480360381019061043d9190612b72565b611a75565b005b61045e60048036038101906104599190612735565b611ace565b60405161047096959493929190612b9d565b60405180910390f35b610493600480360381019061048e9190612b72565b611cdc565b6040516104a293929190612c11565b60405180910390f35b6104c560048036038101906104c09190612b72565b611d4c565b6040516104d29190612c46565b60405180910390f35b6104f560048036038101906104f09190612863565b611de7565b005b610511600480360381019061050c9190612c66565b611e09565b005b61051b611f0e565b6040516105289190612d37565b60405180910390f35b610539611f33565b6040516105469190612972565b60405180910390f35b5f7f7965db0b000000000000000000000000000000000000000000000000000000007bffffffffffffffffffffffffffffffffffffffffffffffffffffffff1916827bffffffffffffffffffffffffffffffffffffffffffffffffffffffff191614806105c157506105c082611f39565b5b9050919050565b5f5f1b6105d481611fa2565b6105e05f5f1b3361175a565b61061f576040517f08c379a000000000000000000000000000000000000000000000000000000000815260040161061690612d9a565b60405180910390fd5b6106497f3e571d11578fe0d54f446989723b38c9886caf07e5120bc5fc8c22251469ecee84611fb6565b508160065f8573ffffffffffffffffffffffffffffffffffffffff1673ffffffffffffffffffffffffffffffffffffffff1681526020019081526020015f2090816106949190612fac565b50505050565b7f3e571d11578fe0d54f446989723b38c9886caf07e5120bc5fc8c22251469ecee6106c481611fa2565b5f60065f3373ffffffffffffffffffffffffffffffffffffffff1673ffffffffffffffffffffffffffffffffffffffff1681526020019081526020015f20805461070d90612de5565b80601f016020809104026020016040519081016040528092919081815260200182805461073990612de5565b80156107845780601f1061075b57610100808354040283529160200191610784565b820191905f5260205f20905b81548152906001019060200180831161076757829003601f168201915b505050505090505f8151036107ce576040517f08c379a00000000000000000000000000000000000000000000000000000000081526004016107c5906130c5565b60405180910390fd5b5f60016004836040516107e1919061311d565b9081526020016040518091039020546107fa9190613160565b90505f826108078361209f565b604051602001610818929190613193565b6040516020818303038152906040529050600381604051610839919061311d565b908152602001604051809103902060050160149054906101000a900460ff1615610898576040517f08c379a000000000000000000000000000000000000000000000000000000000815260040161088f90613200565b60405180910390fd5b6040518060e001604052808281526020018481526020016040518060400160405280600481526020017f4f70656e0000000000000000000000000000000000000000000000000000000081525081526020014281526020015f67ffffffffffffffff81111561090a57610909612531565b5b6040519080825280602002602001820160405280156109385781602001602082028036833780820191505090505b5081526020013373ffffffffffffffffffffffffffffffffffffffff16815260200160011515815250600382604051610971919061311d565b90815260200160405180910390205f820151815f0190816109929190612fac565b5060208201518160010190816109a89190612fac565b5060408201518160020190816109be9190612fac565b506060820151816003015560808201518160040190805190602001906109e5929190612359565b5060a0820151816005015f6101000a81548173ffffffffffffffffffffffffffffffffffffffff021916908373ffffffffffffffffffffffffffffffffffffffff16021790555060c08201518160050160146101000a81548160ff021916908315150217905550905050600483604051610a5f919061311d565b90815260200160405180910390205f815480929190610a7d9061321e565b91905055503373ffffffffffffffffffffffffffffffffffffffff167f4e34de79d280cd9497dda47ec7e91d7d4a0eed0588479d8ec91fd4cf3dbb1f528285604051610aca929190613265565b60405180910390a250505050565b5f5f5f8381526020019081526020015f20600101549050919050565b5f600382604051610b05919061311d565b908152602001604051809103902060050160149054906101000a900460ff169050919050565b610b557fe1a65d1a914580ff6931bc952f0fb26573e9282358a4458bceb9ccc6d923d0413361175a565b610b94576040517f08c379a0000000000000000000000000000000000000000000000000000000008152600401610b8b906132e4565b60405180910390fd5b5f600386604051610ba5919061311d565b908152602001604051809103902090508060050160149054906101000a900460ff16610c06576040517f08c379a0000000000000000000000000000000000000000000000000000000008152600401610bfd9061334c565b60405180910390fd5b5f5f90505f5f90505b8260040180549050811015610ca4573373ffffffffffffffffffffffffffffffffffffffff16836004018281548110610c4b57610c4a61336a565b5b905f5260205f20015f9054906101000a900473ffffffffffffffffffffffffffffffffffffffff1673ffffffffffffffffffffffffffffffffffffffff1603610c975760019150610ca4565b8080600101915050610c0f565b5080610ce5576040517f08c379a0000000000000000000000000000000000000000000000000000000008152600401610cdc906133e1565b60405180910390fd5b5f878642604051602001610cfb9392919061343f565b6040516020818303038152906040528051906020012090506040518061014001604052805f151581526020014281526020018281526020018981526020018681526020018781526020018881526020018581526020013373ffffffffffffffffffffffffffffffffffffffff1681526020015f73ffffffffffffffffffffffffffffffffffffffff1681525060055f8381526020019081526020015f205f820151815f015f6101000a81548160ff02191690831515021790555060208201518160010155604082015181600201556060820151816003019081610dde9190612fac565b506080820151816004019081610df49190612fac565b5060a0820151816005015560c0820151816006019081610e149190612fac565b5060e0820151816007019081610e2a9190612fac565b50610100820151816008015f6101000a81548173ffffffffffffffffffffffffffffffffffffffff021916908373ffffffffffffffffffffffffffffffffffffffff160217905550610120820151816009015f6101000a81548173ffffffffffffffffffffffffffffffffffffffff021916908373ffffffffffffffffffffffffffffffffffffffff1602179055509050507f4aacd36493cce60e39b68867ff32964555db0225e2da8eaea8477c6de381ac9d888233604051610eef93929190613477565b60405180910390a15050505050505050565b610f0a82610ad8565b610f1381611fa2565b610f1d8383611fb6565b50505050565b610f2b612218565b73ffffffffffffffffffffffffffffffffffffffff168173ffffffffffffffffffffffffffffffffffffffff1614610f8f576040517f6697b23200000000000000000000000000000000000000000000000000000000815260040160405180910390fd5b610f99828261221f565b505050565b5f60605f5f5f60055f8781526020019081526020015f20604051806101400160405290815f82015f9054906101000a900460ff161515151581526020016001820154815260200160028201548152602001600382018054610ffe90612de5565b80601f016020809104026020016040519081016040528092919081815260200182805461102a90612de5565b80156110755780601f1061104c57610100808354040283529160200191611075565b820191905f5260205f20905b81548152906001019060200180831161105857829003601f168201915b5050505050815260200160048201805461108e90612de5565b80601f01602080910402602001604051908101604052809291908181526020018280546110ba90612de5565b80156111055780601f106110dc57610100808354040283529160200191611105565b820191905f5260205f20905b8154815290600101906020018083116110e857829003601f168201915b505050505081526020016005820154815260200160068201805461112890612de5565b80601f016020809104026020016040519081016040528092919081815260200182805461115490612de5565b801561119f5780601f106111765761010080835404028352916020019161119f565b820191905f5260205f20905b81548152906001019060200180831161118257829003601f168201915b505050505081526020016007820180546111b890612de5565b80601f01602080910402602001604051908101604052809291908181526020018280546111e490612de5565b801561122f5780601f106112065761010080835404028352916020019161122f565b820191905f5260205f20905b81548152906001019060200180831161121257829003601f168201915b50505050508152602001600882015f9054906101000a900473ffffffffffffffffffffffffffffffffffffffff1673ffffffffffffffffffffffffffffffffffffffff1673ffffffffffffffffffffffffffffffffffffffff168152602001600982015f9054906101000a900473ffffffffffffffffffffffffffffffffffffffff1673ffffffffffffffffffffffffffffffffffffffff1673ffffffffffffffffffffffffffffffffffffffff16815250509050805f01518160e0015182602001518361012001519450945094509450509193509193565b6004818051602081018201805184825260208301602085012081835280955050505050505f915090505481565b6060600382604051611347919061311d565b908152602001604051809103902060050160149054906101000a900460ff166113a5576040517f08c379a000000000000000000000000000000000000000000000000000000000815260040161139c906134fd565b60405180910390fd5b6003826040516113b5919061311d565b908152602001604051809103902060040180548060200260200160405190810160405280929190818152602001828054801561144357602002820191905f5260205f20905b815f9054906101000a900473ffffffffffffffffffffffffffffffffffffffff1673ffffffffffffffffffffffffffffffffffffffff16815260200190600101908083116113fa575b50505050509050919050565b7f3e571d11578fe0d54f446989723b38c9886caf07e5120bc5fc8c22251469ecee61147981611fa2565b5f60038460405161148a919061311d565b908152602001604051809103902090508060050160149054906101000a900460ff166114eb576040517f08c379a00000000000000000000000000000000000000000000000000000000081526004016114e2906134fd565b60405180910390fd5b8060040183908060018154018082558091505060019003905f5260205f20015f9091909190916101000a81548173ffffffffffffffffffffffffffffffffffffffff021916908373ffffffffffffffffffffffffffffffffffffffff1602179055507ff37876854cd14233a11a6966d2cf9cacee754bf2f5b3246479c4e9af7c91b54b848460405161157e92919061351b565b60405180910390a150505050565b7f3e571d11578fe0d54f446989723b38c9886caf07e5120bc5fc8c22251469ecee81565b7f3e571d11578fe0d54f446989723b38c9886caf07e5120bc5fc8c22251469ecee6115da81611fa2565b5f60055f8481526020019081526020015f2090505f5f1b816002015403611636576040517f08c379a000000000000000000000000000000000000000000000000000000000815260040161162d90613593565b60405180910390fd5b805f015f9054906101000a900460ff1615611686576040517f08c379a000000000000000000000000000000000000000000000000000000000815260040161167d906135fb565b60405180910390fd5b6001815f015f6101000a81548160ff02191690831515021790555033816009015f6101000a81548173ffffffffffffffffffffffffffffffffffffffff021916908373ffffffffffffffffffffffffffffffffffffffff1602179055503373ffffffffffffffffffffffffffffffffffffffff167f03d00005da289d374b7f754ad9f9ce730d77b726bdea50272c5038e2b7abcb3d84604051611729919061271c565b60405180910390a2505050565b7fe1a65d1a914580ff6931bc952f0fb26573e9282358a4458bceb9ccc6d923d04181565b5f5f5f8481526020019081526020015f205f015f8373ffffffffffffffffffffffffffffffffffffffff1673ffffffffffffffffffffffffffffffffffffffff1681526020019081526020015f205f9054906101000a900460ff16905092915050565b6005602052805f5260405f205f91509050805f015f9054906101000a900460ff16908060010154908060020154908060030180546117fa90612de5565b80601f016020809104026020016040519081016040528092919081815260200182805461182690612de5565b80156118715780601f1061184857610100808354040283529160200191611871565b820191905f5260205f20905b81548152906001019060200180831161185457829003601f168201915b50505050509080600401805461188690612de5565b80601f01602080910402602001604051908101604052809291908181526020018280546118b290612de5565b80156118fd5780601f106118d4576101008083540402835291602001916118fd565b820191905f5260205f20905b8154815290600101906020018083116118e057829003601f168201915b50505050509080600501549080600601805461191890612de5565b80601f016020809104026020016040519081016040528092919081815260200182805461194490612de5565b801561198f5780601f106119665761010080835404028352916020019161198f565b820191905f5260205f20905b81548152906001019060200180831161197257829003601f168201915b5050505050908060070180546119a490612de5565b80601f01602080910402602001604051908101604052809291908181526020018280546119d090612de5565b8015611a1b5780601f106119f257610100808354040283529160200191611a1b565b820191905f5260205f20905b8154815290600101906020018083116119fe57829003601f168201915b505050505090806008015f9054906101000a900473ffffffffffffffffffffffffffffffffffffffff1690806009015f9054906101000a900473ffffffffffffffffffffffffffffffffffffffff1690508a565b5f5f1b81565b7f3e571d11578fe0d54f446989723b38c9886caf07e5120bc5fc8c22251469ecee611a9f81611fa2565b611ac97fe1a65d1a914580ff6931bc952f0fb26573e9282358a4458bceb9ccc6d923d04183611fb6565b505050565b6003818051602081018201805184825260208301602085012081835280955050505050505f91509050805f018054611b0590612de5565b80601f0160208091040260200160405190810160405280929190818152602001828054611b3190612de5565b8015611b7c5780601f10611b5357610100808354040283529160200191611b7c565b820191905f5260205f20905b815481529060010190602001808311611b5f57829003601f168201915b505050505090806001018054611b9190612de5565b80601f0160208091040260200160405190810160405280929190818152602001828054611bbd90612de5565b8015611c085780601f10611bdf57610100808354040283529160200191611c08565b820191905f5260205f20905b815481529060010190602001808311611beb57829003601f168201915b505050505090806002018054611c1d90612de5565b80601f0160208091040260200160405190810160405280929190818152602001828054611c4990612de5565b8015611c945780601f10611c6b57610100808354040283529160200191611c94565b820191905f5260205f20905b815481529060010190602001808311611c7757829003601f168201915b505050505090806003015490806005015f9054906101000a900473ffffffffffffffffffffffffffffffffffffffff16908060050160149054906101000a900460ff16905086565b5f5f5f611ceb5f5f1b8561175a565b9250611d177f3e571d11578fe0d54f446989723b38c9886caf07e5120bc5fc8c22251469ecee8561175a565b9150611d437fe1a65d1a914580ff6931bc952f0fb26573e9282358a4458bceb9ccc6d923d0418561175a565b90509193909250565b6006602052805f5260405f205f915090508054611d6890612de5565b80601f0160208091040260200160405190810160405280929190818152602001828054611d9490612de5565b8015611ddf5780601f10611db657610100808354040283529160200191611ddf565b820191905f5260205f20905b815481529060010190602001808311611dc257829003601f168201915b505050505081565b611df082610ad8565b611df981611fa2565b611e03838361221f565b50505050565b7f3e571d11578fe0d54f446989723b38c9886caf07e5120bc5fc8c22251469ecee611e3381611fa2565b600383604051611e43919061311d565b908152602001604051809103902060050160149054906101000a900460ff16611ea1576040517f08c379a0000000000000000000000000000000000000000000000000000000008152600401611e98906134fd565b60405180910390fd5b81600384604051611eb2919061311d565b90815260200160405180910390206002019081611ecf9190612fac565b507fa2367a7e51dfeede138ae5fcf7545fc0b9ddba35b0bca808d99d29af6a3366208383604051611f01929190613265565b60405180910390a1505050565b60015f9054906101000a900473ffffffffffffffffffffffffffffffffffffffff1681565b60025481565b5f7f01ffc9a7000000000000000000000000000000000000000000000000000000007bffffffffffffffffffffffffffffffffffffffffffffffffffffffff1916827bffffffffffffffffffffffffffffffffffffffffffffffffffffffff1916149050919050565b611fb381611fae612218565b612308565b50565b5f611fc1838361175a565b6120955760015f5f8581526020019081526020015f205f015f8473ffffffffffffffffffffffffffffffffffffffff1673ffffffffffffffffffffffffffffffffffffffff1681526020019081526020015f205f6101000a81548160ff021916908315150217905550612032612218565b73ffffffffffffffffffffffffffffffffffffffff168273ffffffffffffffffffffffffffffffffffffffff16847f2f8788117e7eff1d82e926ec794901d17c78024a50270940304540a733656f0d60405160405180910390a460019050612099565b5f90505b92915050565b60605f82036120e5576040518060400160405280600181526020017f30000000000000000000000000000000000000000000000000000000000000008152509050612213565b5f8290505f5b5f82146121145780806120fd9061321e565b915050600a8261210d9190613646565b91506120eb565b5f8167ffffffffffffffff81111561212f5761212e612531565b5b6040519080825280601f01601f1916602001820160405280156121615781602001600182028036833780820191505090505b5090505f8290505b5f861461220b5760018161217d9190613676565b90505f600a808861218e9190613646565b61219891906136a9565b876121a39190613676565b60306121af91906136f6565b90508060f81b8383815181106121c8576121c761336a565b5b60200101907effffffffffffffffffffffffffffffffffffffffffffffffffffffffffffff191690815f1a905350600a876122039190613646565b965050612169565b819450505050505b919050565b5f33905090565b5f61222a838361175a565b156122fe575f5f5f8581526020019081526020015f205f015f8473ffffffffffffffffffffffffffffffffffffffff1673ffffffffffffffffffffffffffffffffffffffff1681526020019081526020015f205f6101000a81548160ff02191690831515021790555061229b612218565b73ffffffffffffffffffffffffffffffffffffffff168273ffffffffffffffffffffffffffffffffffffffff16847ff6391f5c32d9c69d2a47ea670b442974b53935d1edc7fd64eb21e047a839171b60405160405180910390a460019050612302565b5f90505b92915050565b612312828261175a565b6123555780826040517fe2517d3f00000000000000000000000000000000000000000000000000000000815260040161234c92919061372a565b60405180910390fd5b5050565b828054828255905f5260205f209081019282156123cf579160200282015b828111156123ce578251825f6101000a81548173ffffffffffffffffffffffffffffffffffffffff021916908373ffffffffffffffffffffffffffffffffffffffff16021790555091602001919060010190612377565b5b5090506123dc91906123e0565b5090565b5b808211156123f7575f815f9055506001016123e1565b5090565b5f604051905090565b5f5ffd5b5f5ffd5b5f7fffffffff0000000000000000000000000000000000000000000000000000000082169050919050565b6124408161240c565b811461244a575f5ffd5b50565b5f8135905061245b81612437565b92915050565b5f6020828403121561247657612475612404565b5b5f6124838482850161244d565b91505092915050565b5f8115159050919050565b6124a08161248c565b82525050565b5f6020820190506124b95f830184612497565b92915050565b5f73ffffffffffffffffffffffffffffffffffffffff82169050919050565b5f6124e8826124bf565b9050919050565b6124f8816124de565b8114612502575f5ffd5b50565b5f81359050612513816124ef565b92915050565b5f5ffd5b5f5ffd5b5f601f19601f8301169050919050565b7f4e487b71000000000000000000000000000000000000000000000000000000005f52604160045260245ffd5b61256782612521565b810181811067ffffffffffffffff8211171561258657612585612531565b5b80604052505050565b5f6125986123fb565b90506125a4828261255e565b919050565b5f67ffffffffffffffff8211156125c3576125c2612531565b5b6125cc82612521565b9050602081019050919050565b828183375f83830152505050565b5f6125f96125f4846125a9565b61258f565b9050828152602081018484840111156126155761261461251d565b5b6126208482856125d9565b509392505050565b5f82601f83011261263c5761263b612519565b5b813561264c8482602086016125e7565b91505092915050565b5f5f6040838503121561266b5761266a612404565b5b5f61267885828601612505565b925050602083013567ffffffffffffffff81111561269957612698612408565b5b6126a585828601612628565b9150509250929050565b5f819050919050565b6126c1816126af565b81146126cb575f5ffd5b50565b5f813590506126dc816126b8565b92915050565b5f602082840312156126f7576126f6612404565b5b5f612704848285016126ce565b91505092915050565b612716816126af565b82525050565b5f60208201905061272f5f83018461270d565b92915050565b5f6020828403121561274a57612749612404565b5b5f82013567ffffffffffffffff81111561276757612766612408565b5b61277384828501612628565b91505092915050565b5f5f5f5f5f60a0868803121561279557612794612404565b5b5f86013567ffffffffffffffff8111156127b2576127b1612408565b5b6127be88828901612628565b955050602086013567ffffffffffffffff8111156127df576127de612408565b5b6127eb88828901612628565b94505060406127fc888289016126ce565b935050606086013567ffffffffffffffff81111561281d5761281c612408565b5b61282988828901612628565b925050608086013567ffffffffffffffff81111561284a57612849612408565b5b61285688828901612628565b9150509295509295909350565b5f5f6040838503121561287957612878612404565b5b5f612886858286016126ce565b925050602061289785828601612505565b9150509250929050565b5f81519050919050565b5f82825260208201905092915050565b8281835e5f83830152505050565b5f6128d3826128a1565b6128dd81856128ab565b93506128ed8185602086016128bb565b6128f681612521565b840191505092915050565b5f819050919050565b61291381612901565b82525050565b612922816124de565b82525050565b5f60808201905061293b5f830187612497565b818103602083015261294d81866128c9565b905061295c604083018561290a565b6129696060830184612919565b95945050505050565b5f6020820190506129855f83018461290a565b92915050565b5f81519050919050565b5f82825260208201905092915050565b5f819050602082019050919050565b6129bd816124de565b82525050565b5f6129ce83836129b4565b60208301905092915050565b5f602082019050919050565b5f6129f08261298b565b6129fa8185612995565b9350612a05836129a5565b805f5b83811015612a35578151612a1c88826129c3565b9750612a27836129da565b925050600181019050612a08565b5085935050505092915050565b5f6020820190508181035f830152612a5a81846129e6565b905092915050565b5f5f60408385031215612a7857612a77612404565b5b5f83013567ffffffffffffffff811115612a9557612a94612408565b5b612aa185828601612628565b9250506020612ab285828601612505565b9150509250929050565b5f61014082019050612ad05f83018d612497565b612add602083018c61290a565b612aea604083018b61270d565b8181036060830152612afc818a6128c9565b90508181036080830152612b1081896128c9565b9050612b1f60a083018861270d565b81810360c0830152612b3181876128c9565b905081810360e0830152612b4581866128c9565b9050612b55610100830185612919565b612b63610120830184612919565b9b9a5050505050505050505050565b5f60208284031215612b8757612b86612404565b5b5f612b9484828501612505565b91505092915050565b5f60c0820190508181035f830152612bb581896128c9565b90508181036020830152612bc981886128c9565b90508181036040830152612bdd81876128c9565b9050612bec606083018661290a565b612bf96080830185612919565b612c0660a0830184612497565b979650505050505050565b5f606082019050612c245f830186612497565b612c316020830185612497565b612c3e6040830184612497565b949350505050565b5f6020820190508181035f830152612c5e81846128c9565b905092915050565b5f5f60408385031215612c7c57612c7b612404565b5b5f83013567ffffffffffffffff811115612c9957612c98612408565b5b612ca585828601612628565b925050602083013567ffffffffffffffff811115612cc657612cc5612408565b5b612cd285828601612628565b9150509250929050565b5f819050919050565b5f612cff612cfa612cf5846124bf565b612cdc565b6124bf565b9050919050565b5f612d1082612ce5565b9050919050565b5f612d2182612d06565b9050919050565b612d3181612d17565b82525050565b5f602082019050612d4a5f830184612d28565b92915050565b7f4f6e6c7920526f6f742041646d696e00000000000000000000000000000000005f82015250565b5f612d84600f836128ab565b9150612d8f82612d50565b602082019050919050565b5f6020820190508181035f830152612db181612d78565b9050919050565b7f4e487b71000000000000000000000000000000000000000000000000000000005f52602260045260245ffd5b5f6002820490506001821680612dfc57607f821691505b602082108103612e0f57612e0e612db8565b5b50919050565b5f819050815f5260205f209050919050565b5f6020601f8301049050919050565b5f82821b905092915050565b5f60088302612e717fffffffffffffffffffffffffffffffffffffffffffffffffffffffffffffffff82612e36565b612e7b8683612e36565b95508019841693508086168417925050509392505050565b5f612ead612ea8612ea384612901565b612cdc565b612901565b9050919050565b5f819050919050565b612ec683612e93565b612eda612ed282612eb4565b848454612e42565b825550505050565b5f5f905090565b612ef1612ee2565b612efc818484612ebd565b505050565b5b81811015612f1f57612f145f82612ee9565b600181019050612f02565b5050565b601f821115612f6457612f3581612e15565b612f3e84612e27565b81016020851015612f4d578190505b612f61612f5985612e27565b830182612f01565b50505b505050565b5f82821c905092915050565b5f612f845f1984600802612f69565b1980831691505092915050565b5f612f9c8383612f75565b9150826002028217905092915050565b612fb5826128a1565b67ffffffffffffffff811115612fce57612fcd612531565b5b612fd88254612de5565b612fe3828285612f23565b5f60209050601f831160018114613014575f8415613002578287015190505b61300c8582612f91565b865550613073565b601f19841661302286612e15565b5f5b8281101561304957848901518255600182019150602085019450602081019050613024565b868310156130665784890151613062601f891682612f75565b8355505b6001600288020188555050505b505050505050565b7f41646d696e20686173206e6f2061737369676e656420726567696f6e000000005f82015250565b5f6130af601c836128ab565b91506130ba8261307b565b602082019050919050565b5f6020820190508181035f8301526130dc816130a3565b9050919050565b5f81905092915050565b5f6130f7826128a1565b61310181856130e3565b93506131118185602086016128bb565b80840191505092915050565b5f61312882846130ed565b915081905092915050565b7f4e487b71000000000000000000000000000000000000000000000000000000005f52601160045260245ffd5b5f61316a82612901565b915061317583612901565b925082820190508082111561318d5761318c613133565b5b92915050565b5f61319e82856130ed565b91506131aa82846130ed565b91508190509392505050565b7f4361736520494420616c726561647920657869737473000000000000000000005f82015250565b5f6131ea6016836128ab565b91506131f5826131b6565b602082019050919050565b5f6020820190508181035f830152613217816131de565b9050919050565b5f61322882612901565b91507fffffffffffffffffffffffffffffffffffffffffffffffffffffffffffffffff820361325a57613259613133565b5b600182019050919050565b5f6040820190508181035f83015261327d81856128c9565b9050818103602083015261329181846128c9565b90509392505050565b7f4572726f723a204e6f205375626d697474657220526f6c6500000000000000005f82015250565b5f6132ce6018836128ab565b91506132d98261329a565b602082019050919050565b5f6020820190508181035f8301526132fb816132c2565b9050919050565b7f4572726f723a204361736520494420646f6573206e6f742065786973740000005f82015250565b5f613336601d836128ab565b915061334182613302565b602082019050919050565b5f6020820190508181035f8301526133638161332a565b9050919050565b7f4e487b71000000000000000000000000000000000000000000000000000000005f52603260045260245ffd5b7f4572726f723a204e6f742061737369676e656420746f207468697320636173655f82015250565b5f6133cb6020836128ab565b91506133d682613397565b602082019050919050565b5f6020820190508181035f8301526133f8816133bf565b9050919050565b5f819050919050565b613419613414826126af565b6133ff565b82525050565b5f819050919050565b61343961343482612901565b61341f565b82525050565b5f61344a82866130ed565b91506134568285613408565b6020820191506134668284613428565b602082019150819050949350505050565b5f6060820190508181035f83015261348f81866128c9565b905061349e602083018561270d565b6134ab6040830184612919565b949350505050565b7f4361736520646f6573206e6f74206578697374000000000000000000000000005f82015250565b5f6134e76013836128ab565b91506134f2826134b3565b602082019050919050565b5f6020820190508181035f830152613514816134db565b9050919050565b5f6040820190508181035f83015261353381856128c9565b90506135426020830184612919565b9392505050565b7f45766964656e6365206e6f7420657869737400000000000000000000000000005f82015250565b5f61357d6012836128ab565b915061358882613549565b602082019050919050565b5f6020820190508181035f8301526135aa81613571565b9050919050565b7f45766964656e636520697320616c7265616479205665726966696564000000005f82015250565b5f6135e5601c836128ab565b91506135f0826135b1565b602082019050919050565b5f6020820190508181035f830152613612816135d9565b9050919050565b7f4e487b71000000000000000000000000000000000000000000000000000000005f52601260045260245ffd5b5f61365082612901565b915061365b83612901565b92508261366b5761366a613619565b5b828204905092915050565b5f61368082612901565b915061368b83612901565b92508282039050818111156136a3576136a2613133565b5b92915050565b5f6136b382612901565b91506136be83612901565b92508282026136cc81612901565b915082820484148315176136e3576136e2613133565b5b5092915050565b5f60ff82169050919050565b5f613700826136ea565b915061370b836136ea565b9250828201905060ff81111561372457613723613133565b5b92915050565b5f60408201905061373d5f830185612919565b61374a602083018461270d565b939250505056fea2646970667358221220884e31261c3e2893b12bc65fc104e498d3644c34c5481dfb974e037b17d5f01764736f6c634300081c0033",
  "linkReferences": {},
  "deployedLinkReferences": {},
  "immutableReferences": {},
  "inputSourceName": "project/contracts/Evidence.sol",
  "buildInfoId": "solc-0_8_28-f77533b3dc59e98b9c7552d6bf3e84a45d9f340b"
}