{
  "_format": "hh3-artifact-1",
  "contractName": "ICOToken",
  "sourceName": "contracts/icoToken.sol",
  "abi": [
    {
      "inputs": [
        {
          "internalType": "address",
          "name": "_tokenAddress",
          "type": "address"
        },
        {
          "internalType": "uint256",
          "name": "_saleStartTime",
          "type": "uint256"
        },
        {
          "internalType": "uint256",
          "name": "_saleEndTime",
          "type": "uint256"
        },
        {
          "internalType": "uint256",
          "name": "_totalTokensForSale",
          "type": "uint256"
        },
        {
          "internalType": "uint256",
          "name": "_saleCap",
          "type": "uint256"
        },
        {
          "internalType": "uint256",
          "name": "_rate",
          "type": "uint256"
        }
      ],
      "stateMutability": "nonpayable",
      "type": "constructor"
    },
    {
      "inputs": [],
      "name": "AccessControlBadConfirmation",
      "type": "error"
    },
    {
      "inputs": [
        {
          "internalType": "address",
          "name": "account",
          "type": "address"
        },
        {
          "internalType": "bytes32",
          "name": "neededRole",
          "type": "bytes32"
        }
      ],
      "name": "AccessControlUnauthorizedAccount",
      "type": "error"
    },
    {
      "inputs": [],
      "name": "EnforcedPause",
      "type": "error"
    },
    {
      "inputs": [],
      "name": "ExpectedPause",
      "type": "error"
    },
    {
      "inputs": [],
      "name": "ReentrancyGuardReentrantCall",
      "type": "error"
    },
    {
      "anonymous": false,
      "inputs": [
        {
          "indexed": false,
          "internalType": "address",
          "name": "account",
          "type": "address"
        }
      ],
      "name": "Paused",
      "type": "event"
    },
    {
      "anonymous": false,
      "inputs": [
        {
          "indexed": false,
          "internalType": "uint256",
          "name": "newRate",
          "type": "uint256"
        }
      ],
      "name": "RateUpdated",
      "type": "event"
    },
    {
      "anonymous": false,
      "inputs": [
        {
          "indexed": true,
          "internalType": "bytes32",
          "name": "role",
          "type": "bytes32"
        },
        {
          "indexed": true,
          "internalType": "bytes32",
          "name": "previousAdminRole",
          "type": "bytes32"
        },
        {
          "indexed": true,
          "internalType": "bytes32",
          "name": "newAdminRole",
          "type": "bytes32"
        }
      ],
      "name": "RoleAdminChanged",
      "type": "event"
    },
    {
      "anonymous": false,
      "inputs": [
        {
          "indexed": true,
          "internalType": "bytes32",
          "name": "role",
          "type": "bytes32"
        },
        {
          "indexed": true,
          "internalType": "address",
          "name": "account",
          "type": "address"
        },
        {
          "indexed": true,
          "internalType": "address",
          "name": "sender",
          "type": "address"
        }
      ],
      "name": "RoleGranted",
      "type": "event"
    },
    {
      "anonymous": false,
      "inputs": [
        {
          "indexed": true,
          "internalType": "bytes32",
          "name": "role",
          "type": "bytes32"
        },
        {
          "indexed": true,
          "internalType": "address",
          "name": "account",
          "type": "address"
        },
        {
          "indexed": true,
          "internalType": "address",
          "name": "sender",
          "type": "address"
        }
      ],
      "name": "RoleRevoked",
      "type": "event"
    },
    {
      "anonymous": false,
      "inputs": [
        {
          "indexed": false,
          "internalType": "uint256",
          "name": "newCap",
          "type": "uint256"
        }
      ],
      "name": "SaleCapUpdated",
      "type": "event"
    },
    {
      "anonymous": false,
      "inputs": [
        {
          "indexed": false,
          "internalType": "uint256",
          "name": "startTime",
          "type": "uint256"
        },
        {
          "indexed": false,
          "internalType": "uint256",
          "name": "endTime",
          "type": "uint256"
        }
      ],
      "name": "SaleWindowUpdated",
      "type": "event"
    },
    {
      "anonymous": false,
      "inputs": [
        {
          "indexed": false,
          "internalType": "uint256",
          "name": "totalTokensForSale",
          "type": "uint256"
        }
      ],
      "name": "TokensForSaleSet",
      "type": "event"
    },
    {
      "anonymous": false,
      "inputs": [
        {
          "indexed": true,
          "internalType": "address",
          "name": "buyer",
          "type": "address"
        },
        {
          "indexed": false,
          "internalType": "uint256",
          "name": "amountOfETH",
          "type": "uint256"
        },
        {
          "indexed": false,
          "internalType": "uint256",
          "name": "amountOfTokens",
          "type": "uint256"
        }
      ],
      "name": "TokensPurchased",
      "type": "event"
    },
    {
      "anonymous": false,
      "inputs": [
        {
          "indexed": false,
          "internalType": "address",
          "name": "account",
          "type": "address"
        }
      ],
      "name": "Unpaused",
      "type": "event"
    },
    {
      "anonymous": false,
      "inputs": [
        {
          "indexed": true,
          "internalType": "address",
          "name": "admin",
          "type": "address"
        },
        {
          "indexed": false,
          "internalType": "uint256",
          "name": "amount",
          "type": "uint256"
        }
      ],
      "name": "Withdrawn",
      "type": "event"
    },
    {
      "inputs": [],
      "name": "DEFAULT_ADMIN_ROLE",
      "outputs": [
        {
          "internalType": "bytes32",
          "name": "",
          "type": "bytes32"
        }
      ],
      "stateMutability": "view",
      "type": "function"
    },
    {
      "inputs": [],
      "name": "SUPER_ADMIN_ROLE",
      "outputs": [
        {
          "internalType": "bytes32",
          "name": "",
          "type": "bytes32"
        }
      ],
      "stateMutability": "view",
      "type": "function"
    },
    {
      "inputs": [],
      "name": "buyTokens",
      "outputs": [],
      "stateMutability": "payable",
      "type": "function"
    },
    {
      "inputs": [
        {
          "internalType": "bytes32",
          "name": "role",
          "type": "bytes32"
        }
      ],
      "name": "getRoleAdmin",
      "outputs": [
        {
          "internalType": "bytes32",
          "name": "",
          "type": "bytes32"
        }
      ],
      "stateMutability": "view",
      "type": "function"
    },
    {
      "inputs": [
        {
          "internalType": "bytes32",
          "name": "role",
          "type": "bytes32"
        },
        {
          "internalType": "address",
          "name": "account",
          "type": "address"
        }
      ],
      "name": "grantRole",
      "outputs": [],
      "stateMutability": "nonpayable",
      "type": "function"
    },
    {
      "inputs": [
        {
          "internalType": "bytes32",
          "name": "role",
          "type": "bytes32"
        },
        {
          "internalType": "address",
          "name": "account",
          "type": "address"
        }
      ],
      "name": "hasRole",
      "outputs": [
        {
          "internalType": "bool",
          "name": "",
          "type": "bool"
        }
      ],
      "stateMutability": "view",
      "type": "function"
    },
    {
      "inputs": [],
      "name": "paused",
      "outputs": [
        {
          "internalType": "bool",
          "name": "",
          "type": "bool"
        }
      ],
      "stateMutability": "view",
      "type": "function"
    },
    {
      "inputs": [
        {
          "internalType": "bytes32",
          "name": "role",
          "type": "bytes32"
        },
        {
          "internalType": "address",
          "name": "callerConfirmation",
          "type": "address"
        }
      ],
      "name": "renounceRole",
      "outputs": [],
      "stateMutability": "nonpayable",
      "type": "function"
    },
    {
      "inputs": [
        {
          "internalType": "bytes32",
          "name": "role",
          "type": "bytes32"
        },
        {
          "internalType": "address",
          "name": "account",
          "type": "address"
        }
      ],
      "name": "revokeRole",
      "outputs": [],
      "stateMutability": "nonpayable",
      "type": "function"
    },
    {
      "inputs": [],
      "name": "saleCap",
      "outputs": [
        {
          "internalType": "uint256",
          "name": "",
          "type": "uint256"
        }
      ],
      "stateMutability": "view",
      "type": "function"
    },
    {
      "inputs": [],
      "name": "saleEndTime",
      "outputs": [
        {
          "internalType": "uint256",
          "name": "",
          "type": "uint256"
        }
      ],
      "stateMutability": "view",
      "type": "function"
    },
    {
      "inputs": [],
      "name": "saleStartTime",
      "outputs": [
        {
          "internalType": "uint256",
          "name": "",
          "type": "uint256"
        }
      ],
      "stateMutability": "view",
      "type": "function"
    },
    {
      "inputs": [
        {
          "internalType": "uint256",
          "name": "_newRate",
          "type": "uint256"
        }
      ],
      "name": "setRateUpdated",
      "outputs": [],
      "stateMutability": "nonpayable",
      "type": "function"
    },
    {
      "inputs": [
        {
          "internalType": "uint256",
          "name": "_newCap",
          "type": "uint256"
        }
      ],
      "name": "setSaleCapUpdated",
      "outputs": [],
      "stateMutability": "nonpayable",
      "type": "function"
    },
    {
      "inputs": [
        {
          "internalType": "uint256",
          "name": "_start",
          "type": "uint256"
        },
        {
          "internalType": "uint256",
          "name": "_end",
          "type": "uint256"
        }
      ],
      "name": "setSaleWindowUpdated",
      "outputs": [],
      "stateMutability": "nonpayable",
      "type": "function"
    },
    {
      "inputs": [
        {
          "internalType": "uint256",
          "name": "_totalTokensForSale",
          "type": "uint256"
        }
      ],
      "name": "setTotalTokensForSale",
      "outputs": [],
      "stateMutability": "nonpayable",
      "type": "function"
    },
    {
      "inputs": [
        {
          "internalType": "bytes4",
          "name": "interfaceId",
          "type": "bytes4"
        }
      ],
      "name": "supportsInterface",
      "outputs": [
        {
          "internalType": "bool",
          "name": "",
          "type": "bool"
        }
      ],
      "stateMutability": "view",
      "type": "function"
    },
    {
      "inputs": [],
      "name": "token",
      "outputs": [
        {
          "internalType": "contract IMintableToken",
          "name": "",
          "type": "address"
        }
      ],
      "stateMutability": "view",
      "type": "function"
    },
    {
      "inputs": [],
      "name": "tokensPerEth",
      "outputs": [
        {
          "internalType": "uint256",
          "name": "",
          "type": "uint256"
        }
      ],
      "stateMutability": "view",
      "type": "function"
    },
    {
      "inputs": [],
      "name": "tokensSold",
      "outputs": [
        {
          "internalType": "uint256",
          "name": "",
          "type": "uint256"
        }
      ],
      "stateMutability": "view",
      "type": "function"
    },
    {
      "inputs": [],
      "name": "totalTokensForSale",
      "outputs": [
        {
          "internalType": "uint256",
          "name": "",
          "type": "uint256"
        }
      ],
      "stateMutability": "view",
      "type": "function"
    },
    {
      "inputs": [],
      "name": "withdraw",
      "outputs": [],
      "stateMutability": "nonpayable",
      "type": "function"
    },
    {
      "stateMutability": "payable",
      "type": "receive"
    }
  ],
  "bytecode": "0x60806040526103e860025569043c33c1937564800000600555348015610023575f5ffd5b50604051611eeb380380611eeb8339818101604052810190610045919061041c565b60016100636100586101fa60201b60201c565b61022360201b60201c565b5f01819055505f73ffffffffffffffffffffffffffffffffffffffff168673ffffffffffffffffffffffffffffffffffffffff16036100d7576040517f08c379a00000000000000000000000000000000000000000000000000000000081526004016100ce906104ff565b60405180910390fd5b5f8111610119576040517f08c379a000000000000000000000000000000000000000000000000000000000815260040161011090610567565b60405180910390fd5b83851061015b576040517f08c379a0000000000000000000000000000000000000000000000000000000008152600401610152906105cf565b60405180910390fd5b856001806101000a81548173ffffffffffffffffffffffffffffffffffffffff021916908373ffffffffffffffffffffffffffffffffffffffff16021790555080600281905550846003819055508360048190555081600581905550826006819055506101ee7f7613a25ecc738585a232ad50a301178f12b3ba8887d13e138b523c4269c476893361022c60201b60201c565b505050505050506105ed565b5f7f9b779b17422d0df92223018b32b4d1fa46e071723d6817e2486d003becc55f005f1b905090565b5f819050919050565b5f61023d838361032160201b60201c565b6103175760015f5f8581526020019081526020015f205f015f8473ffffffffffffffffffffffffffffffffffffffff1673ffffffffffffffffffffffffffffffffffffffff1681526020019081526020015f205f6101000a81548160ff0219169083151502179055506102b461038460201b60201c565b73ffffffffffffffffffffffffffffffffffffffff168273ffffffffffffffffffffffffffffffffffffffff16847f2f8788117e7eff1d82e926ec794901d17c78024a50270940304540a733656f0d60405160405180910390a46001905061031b565b5f90505b92915050565b5f5f5f8481526020019081526020015f205f015f8373ffffffffffffffffffffffffffffffffffffffff1673ffffffffffffffffffffffffffffffffffffffff1681526020019081526020015f205f9054906101000a900460ff16905092915050565b5f33905090565b5f5ffd5b5f73ffffffffffffffffffffffffffffffffffffffff82169050919050565b5f6103b88261038f565b9050919050565b6103c8816103ae565b81146103d2575f5ffd5b50565b5f815190506103e3816103bf565b92915050565b5f819050919050565b6103fb816103e9565b8114610405575f5ffd5b50565b5f81519050610416816103f2565b92915050565b5f5f5f5f5f5f60c087890312156104365761043561038b565b5b5f61044389828a016103d5565b965050602061045489828a01610408565b955050604061046589828a01610408565b945050606061047689828a01610408565b935050608061048789828a01610408565b92505060a061049889828a01610408565b9150509295509295509295565b5f82825260208201905092915050565b7f496e76616c696420746f6b656e206164647265737300000000000000000000005f82015250565b5f6104e96015836104a5565b91506104f4826104b5565b602082019050919050565b5f6020820190508181035f830152610516816104dd565b9050919050565b7f52617465206d757374206265203e2030000000000000000000000000000000005f82015250565b5f6105516010836104a5565b915061055c8261051d565b602082019050919050565b5f6020820190508181035f83015261057e81610545565b9050919050565b7f496e76616c69642073616c652077696e646f77000000000000000000000000005f82015250565b5f6105b96013836104a5565b91506105c482610585565b602082019050919050565b5f6020820190508181035f8301526105e6816105ad565b9050919050565b6118f1806105fa5f395ff3fe608060405260043610610138575f3560e01c806360219c7b116100aa578063b19a4a621161006e578063b19a4a6214610403578063cbdd69b51461042b578063d0febe4c14610455578063d547741f1461045f578063ed338ff114610487578063fc0c546a146104b157610147565b806360219c7b146103235780637676164e1461034d57806391d1485414610375578063a217fddf146103b1578063a9054387146103db57610147565b80632f2ff15d116100fc5780632f2ff15d1461023f57806336568abe146102675780633ccfd60b1461028f5780634460bdd6146102a5578063518ab2a8146102cf5780635c975abb146102f957610147565b806301ffc9a71461014b578063078fd9ea146101875780630fca211d146101b15780631cbaee2d146101d9578063248a9ca31461020357610147565b36610147576101456104db565b005b5f5ffd5b348015610156575f5ffd5b50610171600480360381019061016c919061112a565b61075a565b60405161017e919061116f565b60405180910390f35b348015610192575f5ffd5b5061019b6107d3565b6040516101a891906111a0565b60405180910390f35b3480156101bc575f5ffd5b506101d760048036038101906101d291906111e3565b6107d9565b005b3480156101e4575f5ffd5b506101ed610891565b6040516101fa91906111a0565b60405180910390f35b34801561020e575f5ffd5b5061022960048036038101906102249190611254565b610897565b604051610236919061128e565b60405180910390f35b34801561024a575f5ffd5b5061026560048036038101906102609190611301565b6108b3565b005b348015610272575f5ffd5b5061028d60048036038101906102889190611301565b6108d5565b005b34801561029a575f5ffd5b506102a3610950565b005b3480156102b0575f5ffd5b506102b9610a56565b6040516102c6919061128e565b60405180910390f35b3480156102da575f5ffd5b506102e3610a7a565b6040516102f091906111a0565b60405180910390f35b348015610304575f5ffd5b5061030d610a80565b60405161031a919061116f565b60405180910390f35b34801561032e575f5ffd5b50610337610a95565b60405161034491906111a0565b60405180910390f35b348015610358575f5ffd5b50610373600480360381019061036e919061133f565b610a9b565b005b348015610380575f5ffd5b5061039b60048036038101906103969190611301565b610b49565b6040516103a8919061116f565b60405180910390f35b3480156103bc575f5ffd5b506103c5610bac565b6040516103d2919061128e565b60405180910390f35b3480156103e6575f5ffd5b5061040160048036038101906103fc919061133f565b610bb2565b005b34801561040e575f5ffd5b506104296004803603810190610424919061133f565b610c60565b005b348015610436575f5ffd5b5061043f610ccc565b60405161044c91906111a0565b60405180910390f35b61045d6104db565b005b34801561046a575f5ffd5b5061048560048036038101906104809190611301565b610cd2565b005b348015610492575f5ffd5b5061049b610cf4565b6040516104a891906111a0565b60405180910390f35b3480156104bc575f5ffd5b506104c5610cfa565b6040516104d291906113c5565b60405180910390f35b600354421015610520576040517f08c379a000000000000000000000000000000000000000000000000000000000815260040161051790611438565b60405180910390fd5b600454421115610565576040517f08c379a000000000000000000000000000000000000000000000000000000000815260040161055c906114a0565b60405180910390fd5b61056d610d1e565b610575610d40565b5f34116105b7576040517f08c379a00000000000000000000000000000000000000000000000000000000081526004016105ae90611508565b60405180910390fd5b5f600254346105c69190611553565b9050600654816007546105d99190611594565b111561061a576040517f08c379a000000000000000000000000000000000000000000000000000000000815260040161061190611611565b60405180910390fd5b60055481111561065f576040517f08c379a000000000000000000000000000000000000000000000000000000000815260040161065690611679565b60405180910390fd5b60018054906101000a900473ffffffffffffffffffffffffffffffffffffffff1673ffffffffffffffffffffffffffffffffffffffff166340c10f1933836040518363ffffffff1660e01b81526004016106ba9291906116a6565b5f604051808303815f87803b1580156106d1575f5ffd5b505af11580156106e3573d5f5f3e3d5ffd5b505050508060075f8282546106f89190611594565b925050819055503373ffffffffffffffffffffffffffffffffffffffff167f8fafebcaf9d154343dad25669bfa277f4fbacd7ac6b0c4fed522580e040a0f3334836040516107479291906116cd565b60405180910390a250610758610d81565b565b5f7f7965db0b000000000000000000000000000000000000000000000000000000007bffffffffffffffffffffffffffffffffffffffffffffffffffffffff1916827bffffffffffffffffffffffffffffffffffffffffffffffffffffffff191614806107cc57506107cb82610d9b565b5b9050919050565b60055481565b7f7613a25ecc738585a232ad50a301178f12b3ba8887d13e138b523c4269c4768961080381610e04565b818310610845576040517f08c379a000000000000000000000000000000000000000000000000000000000815260040161083c9061173e565b60405180910390fd5b82600381905550816004819055507f7291acdf619347e3dd338a8b65d1788570a0f1bc413e94e9e7333d0561c6ed5883836040516108849291906116cd565b60405180910390a1505050565b60035481565b5f5f5f8381526020019081526020015f20600101549050919050565b6108bc82610897565b6108c581610e04565b6108cf8383610e18565b50505050565b6108dd610f01565b73ffffffffffffffffffffffffffffffffffffffff168173ffffffffffffffffffffffffffffffffffffffff1614610941576040517f6697b23200000000000000000000000000000000000000000000000000000000815260040160405180910390fd5b61094b8282610f08565b505050565b7f7613a25ecc738585a232ad50a301178f12b3ba8887d13e138b523c4269c4768961097a81610e04565b5f4790505f81116109c0576040517f08c379a00000000000000000000000000000000000000000000000000000000081526004016109b7906117a6565b60405180910390fd5b3373ffffffffffffffffffffffffffffffffffffffff166108fc8290811502906040515f60405180830381858888f19350505050158015610a03573d5f5f3e3d5ffd5b503373ffffffffffffffffffffffffffffffffffffffff167f7084f5476618d8e60b11ef0d7d3f06914655adb8793e28ff7f018d4c76d505d582604051610a4a91906111a0565b60405180910390a25050565b7f7613a25ecc738585a232ad50a301178f12b3ba8887d13e138b523c4269c4768981565b60075481565b5f60015f9054906101000a900460ff16905090565b60065481565b7f7613a25ecc738585a232ad50a301178f12b3ba8887d13e138b523c4269c47689610ac581610e04565b5f8211610b07576040517f08c379a0000000000000000000000000000000000000000000000000000000008152600401610afe9061180e565b60405180910390fd5b816002819055507fe65c987b2e4668e09ba867026921588005b2b2063607a1e7e7d91683c8f91b7b82604051610b3d91906111a0565b60405180910390a15050565b5f5f5f8481526020019081526020015f205f015f8373ffffffffffffffffffffffffffffffffffffffff1673ffffffffffffffffffffffffffffffffffffffff1681526020019081526020015f205f9054906101000a900460ff16905092915050565b5f5f1b81565b7f7613a25ecc738585a232ad50a301178f12b3ba8887d13e138b523c4269c47689610bdc81610e04565b5f8211610c1e576040517f08c379a0000000000000000000000000000000000000000000000000000000008152600401610c1590611876565b60405180910390fd5b816005819055507f485d0e4b989737d723ab204e9e75e63421b4d14727ebebbd0052c8345567c2e782604051610c5491906111a0565b60405180910390a15050565b7f7613a25ecc738585a232ad50a301178f12b3ba8887d13e138b523c4269c47689610c8a81610e04565b816006819055507f52bc6a1bc31e781de0a163a0312b2cc1e75088036799419463b86edf4dd2e81d82604051610cc091906111a0565b60405180910390a15050565b60025481565b610cdb82610897565b610ce481610e04565b610cee8383610f08565b50505050565b60045481565b60018054906101000a900473ffffffffffffffffffffffffffffffffffffffff1681565b610d26610ff1565b6002610d38610d33611032565b61105b565b5f0181905550565b610d48610a80565b15610d7f576040517fd93c066500000000000000000000000000000000000000000000000000000000815260040160405180910390fd5b565b6001610d93610d8e611032565b61105b565b5f0181905550565b5f7f01ffc9a7000000000000000000000000000000000000000000000000000000007bffffffffffffffffffffffffffffffffffffffffffffffffffffffff1916827bffffffffffffffffffffffffffffffffffffffffffffffffffffffff1916149050919050565b610e1581610e10610f01565b611064565b50565b5f610e238383610b49565b610ef75760015f5f8581526020019081526020015f205f015f8473ffffffffffffffffffffffffffffffffffffffff1673ffffffffffffffffffffffffffffffffffffffff1681526020019081526020015f205f6101000a81548160ff021916908315150217905550610e94610f01565b73ffffffffffffffffffffffffffffffffffffffff168273ffffffffffffffffffffffffffffffffffffffff16847f2f8788117e7eff1d82e926ec794901d17c78024a50270940304540a733656f0d60405160405180910390a460019050610efb565b5f90505b92915050565b5f33905090565b5f610f138383610b49565b15610fe7575f5f5f8581526020019081526020015f205f015f8473ffffffffffffffffffffffffffffffffffffffff1673ffffffffffffffffffffffffffffffffffffffff1681526020019081526020015f205f6101000a81548160ff021916908315150217905550610f84610f01565b73ffffffffffffffffffffffffffffffffffffffff168273ffffffffffffffffffffffffffffffffffffffff16847ff6391f5c32d9c69d2a47ea670b442974b53935d1edc7fd64eb21e047a839171b60405160405180910390a460019050610feb565b5f90505b92915050565b610ff96110b5565b15611030576040517f3ee5aeb500000000000000000000000000000000000000000000000000000000815260040160405180910390fd5b565b5f7f9b779b17422d0df92223018b32b4d1fa46e071723d6817e2486d003becc55f005f1b905090565b5f819050919050565b61106e8282610b49565b6110b15780826040517fe2517d3f0000000000000000000000000000000000000000000000000000000081526004016110a8929190611894565b60405180910390fd5b5050565b5f60026110c86110c3611032565b61105b565b5f015414905090565b5f5ffd5b5f7fffffffff0000000000000000000000000000000000000000000000000000000082169050919050565b611109816110d5565b8114611113575f5ffd5b50565b5f8135905061112481611100565b92915050565b5f6020828403121561113f5761113e6110d1565b5b5f61114c84828501611116565b91505092915050565b5f8115159050919050565b61116981611155565b82525050565b5f6020820190506111825f830184611160565b92915050565b5f819050919050565b61119a81611188565b82525050565b5f6020820190506111b35f830184611191565b92915050565b6111c281611188565b81146111cc575f5ffd5b50565b5f813590506111dd816111b9565b92915050565b5f5f604083850312156111f9576111f86110d1565b5b5f611206858286016111cf565b9250506020611217858286016111cf565b9150509250929050565b5f819050919050565b61123381611221565b811461123d575f5ffd5b50565b5f8135905061124e8161122a565b92915050565b5f60208284031215611269576112686110d1565b5b5f61127684828501611240565b91505092915050565b61128881611221565b82525050565b5f6020820190506112a15f83018461127f565b92915050565b5f73ffffffffffffffffffffffffffffffffffffffff82169050919050565b5f6112d0826112a7565b9050919050565b6112e0816112c6565b81146112ea575f5ffd5b50565b5f813590506112fb816112d7565b92915050565b5f5f60408385031215611317576113166110d1565b5b5f61132485828601611240565b9250506020611335858286016112ed565b9150509250929050565b5f60208284031215611354576113536110d1565b5b5f611361848285016111cf565b91505092915050565b5f819050919050565b5f61138d611388611383846112a7565b61136a565b6112a7565b9050919050565b5f61139e82611373565b9050919050565b5f6113af82611394565b9050919050565b6113bf816113a5565b82525050565b5f6020820190506113d85f8301846113b6565b92915050565b5f82825260208201905092915050565b7f53616c65206e6f742073746172746564000000000000000000000000000000005f82015250565b5f6114226010836113de565b915061142d826113ee565b602082019050919050565b5f6020820190508181035f83015261144f81611416565b9050919050565b7f53616c6520656e646564000000000000000000000000000000000000000000005f82015250565b5f61148a600a836113de565b915061149582611456565b602082019050919050565b5f6020820190508181035f8301526114b78161147e565b9050919050565b7f53656e642045544820746f2062757920746f6b656e73000000000000000000005f82015250565b5f6114f26016836113de565b91506114fd826114be565b602082019050919050565b5f6020820190508181035f83015261151f816114e6565b9050919050565b7f4e487b71000000000000000000000000000000000000000000000000000000005f52601160045260245ffd5b5f61155d82611188565b915061156883611188565b925082820261157681611188565b9150828204841483151761158d5761158c611526565b5b5092915050565b5f61159e82611188565b91506115a983611188565b92508282019050808211156115c1576115c0611526565b5b92915050565b7f4578636565647320746f74616c20746f6b656e7320666f722073616c650000005f82015250565b5f6115fb601d836113de565b9150611606826115c7565b602082019050919050565b5f6020820190508181035f830152611628816115ef565b9050919050565b7f457863656564732073616c6520636170000000000000000000000000000000005f82015250565b5f6116636010836113de565b915061166e8261162f565b602082019050919050565b5f6020820190508181035f83015261169081611657565b9050919050565b6116a0816112c6565b82525050565b5f6040820190506116b95f830185611697565b6116c66020830184611191565b9392505050565b5f6040820190506116e05f830185611191565b6116ed6020830184611191565b9392505050565b7f496e76616c69642073616c652077696e646f77000000000000000000000000005f82015250565b5f6117286013836113de565b9150611733826116f4565b602082019050919050565b5f6020820190508181035f8301526117558161171c565b9050919050565b7f4e6f2045544820746f20776974686472617700000000000000000000000000005f82015250565b5f6117906012836113de565b915061179b8261175c565b602082019050919050565b5f6020820190508181035f8301526117bd81611784565b9050919050565b7f52617465206d757374206265203e2030000000000000000000000000000000005f82015250565b5f6117f86010836113de565b9150611803826117c4565b602082019050919050565b5f6020820190508181035f830152611825816117ec565b9050919050565b7f436170206d757374206265203e203000000000000000000000000000000000005f82015250565b5f611860600f836113de565b915061186b8261182c565b602082019050919050565b5f6020820190508181035f83015261188d81611854565b9050919050565b5f6040820190506118a75f830185611697565b6118b4602083018461127f565b939250505056fea2646970667358221220febe672e7b33f6b8ba8ed5f42bf145aca7658104736c6d83d399e4d2bf7cc75364736f6c634300081c0033",
  "linkReferences": {},
  "deployedLinkReferences": {},
  "immutableReferences": {},
  "inputSourceName": "project/contracts/icoToken.sol",
  "buildInfoId": "solc-0_8_28-298e7c0d2743432a09a440121492cabcb75e09fe"
}